:02000004085F93
:1070000000705F08FCFF5F0800000600200005011B
:0870100004018A1300000000D6
:107018000E480F4908B5884205D00E4A824202D070
:107028000D4B121A98470D480D4A00210D4B121AA4
:1070380098470D480D49884205D00D4A824202D032
:10704800054B121A9847014808BD00BF489E071013
:1070580030F45F08E8A007102D0D111000A90710E3
:1070680000B00710A10E1110507C3F0288705F0815
:0C7078000000400219705F0800000000DA
:087088007C705F08C0DC3F02D0
:1070900010F8012B11F8013B012A28BF9A42F7D0C2
:1070A000D01A7047034613F8012B002AFBD1181A97
:1070B0000138704770B501F0D7FF0025054E064C2A
:1070C000A41BA408AC4200D170BD56F8043B9847FD
:1070D0000135F7E7D4FF3F020000400200F0F6BBA5
:1070E00008B500F07BFCBDE8084001F075BF01F079
:1070F00091BA01F08FBA01F09BBA0FB44FF0FF3094
:1071000004B070470C2008B5024A034901F040F969
:10711000FEE700BFD58E3F02D0DC3F020078B0FA18
:1071200080F0400970470123037070470904064A44
:1071300041EA002040F00100044B10601168C907CB
:1071400001D5013BFAD1704700000140A086010043
:10715000064A000240F01000106005481368D90686
:1071600002D50138FAD17047180C70470000014071
:10717000A08601002DE9F34717464FF090421D46C7
:107180008846D2F84433116923F0FE0349014CBF0D
:1071900043F0540343F0D00315F010040646C2F840
:1071A000443340EA001959D04FF421611220FFF70F
:1071B000BDFF4FF421611520FFF7B8FF1B20FFF73B
:1071C000C7FF40F0070081B21B20FFF7AFFF1B2075
:1071D000FFF7BEFF40F0100081B21B20FFF7A6FFB3
:1071E00041F6BF711820FFF7A1FFFB20FFF7B0FFAA
:1071F00040F0020081B2FB20FFF798FF1120FFF75B
:10720000A7FF20F4005141F4805189B21120FFF70B
:107210008DFF1420FFF79CFF20F4005141F48051B2
:1072200089B21420FFF782FF1820FFF791FF6FEA61
:10723000C0406FEAD04081B21820FFF777FF1721D6
:107240001B20FFF773FF49461720FFF76FFF8021D0
:10725000102002B0BDE8F047FFF768BF0320FFF73A
:1072600077FF20F4406141F40061032089B2FFF709
:107270005DFF15F0080A4AD01820FFF769FF40F0BB
:107280003F0081B21820FFF751FF2046FFF760FF53
:1072900000F4406040F4467141F003012046FFF7DE
:1072A00045FF40F2FC710120FFF740FF0220FFF78D
:1072B0004FFF00F4E05040F4014141F0EA010220A8
:1072C000FFF734FF10210C20FFF730FF49F6FC7167
:1072D0000120FFF72BFF0220FFF73AFF00F4E050F8
:1072E00040F4014141F0FA010220FFF71FFF204660
:1072F000FFF72EFF00F4406040F4667141F0030197
:107300002046FFF713FF18210C20FFF70FFF15F0A1
:1073100005042FD00220FFF71BFF20F4C04141F4E9
:107320000141022089B2FFF701FF052005F0BCFEF4
:10733000EA077FD50C20FFF70BFF40F0100081B269
:107340000C20FFF7F3FE0220FFF702FF40F4C060BD
:1073500081B20220FFF7EAFE642005F0A5FE0320BB
:10736000FFF7F6FE20F0F00141F4687189B20320C6
:10737000FFF7DCFE15F00D0F02D0C82005F0A4FECB
:10738000BAF1000F20D00020FFF7E2FE00F44060C9
:1073900040F4067141F003010020FFF7C7FE40F200
:1073A000FC410120FFF7C2FE0220FFF7D1FE00F4EE
:1073B000E05040F4014141F0EA010220FFF7B6FE3F
:1073C00010210C20FFF7B2FE6CB10020FFF7C0FEC9
:1073D00040F4606040F0010081B20020FFF7A6FE9B
:1073E000322005F061FE41F6BF711820FFF79EFEC6
:1073F00046F220311120FFF799FE46F22031142089
:10740000FFF794FE64B31220FFF7A2FE0446152096
:10741000FFF79EFE24F4C76420F4C76AA4B21FFAE3
:107420008AFA092E0ED8DFE806F0BBC00DB60D0DA6
:107430000D0DBBC00320FFF78BFE00F47F4040F42E
:10744000547194E744F004014AF0040A1220FFF753
:107450006DFE15205146FFF769FE322005F034FE1F
:1074600017211B20FFF762FE49461720FFF75EFE3B
:10747000FB20FFF76DFE20F0060141F0080189B204
:10748000FB20FFF753FEFD20FFF762FE20F0060110
:1074900041F0080189B2FD20FFF748FE2720FFF7E1
:1074A00057FE20F4807081B20FB941F4807127201B
:1074B000FFF73CFEFA20FFF74BFE20F4007040057A
:1074C000400D40F48051FA200191FFF72FFEFC207F
:1074D0000199FFF72BFEAB0740D51120FFF738FECF
:1074E000344C204040F4A04141F0190189B21120F0
:1074F000FFF71CFE1220FFF72BFE40F0040081B2C4
:107500001220FFF713FE1420FFF722FE204040F464
:10751000A04141F0180189B21420FFF707FE1520A1
:10752000FFF716FE40F0040081B21520FFF7FEFDC4
:107530001720FFF70DFE20F4E06141F4807189B25D
:107540001720FFF7F3FD1820FFF702FE6FEAC04097
:107550006FEAD04081B21820FFF7E8FD26F0080658
:10756000012E13D11720FFF7F3FD20F4F04141F471
:10757000006189B21720FFF7D9FD1B20FFF7E8FD56
:1075800020F00C0081B21B20FFF7D0FD47EA081164
:1075900041F080015CE644F00C014AF00C0A55E72A
:1075A00044F014014AF0140A50E744F01C014AF078
:1075B0001C0A4BE7FEDFFFFF0C21054A92F83D3025
:1075C0004B43D118D35C0BB9486870470020704713
:1075D00000AA071038B50C4D0A4695F83D4028B171
:1075E0000C2303FB0453596805F0BBFB0C23012259
:1075F00063431444E4B2042CEA540ABF002385F820
:107600003D4085F83D3038BD00AA0710094A92F880
:107610003E1069B90C2092F83C3058430133DBB27C
:10762000042B115402D082F83C30704782F83C1091
:10763000704700BF00AA07100C21084B93F83C20AC
:107640004A4399189A5C22B10022486883F83E2088
:1076500070470122586B83F83E20704700AA07103C
:10766000064B93F83E200AB1986B70470C2193F8B3
:107670003C2001FB02339868704700BF00AA071046
:1076800037B5214B04465B69D8031AD5636A228D4E
:10769000D9064FEA820208D023F01F01013B1344B0
:1076A00023F01F0320335A1A0B46BFF34F8F16489F
:1076B0001344002AA3EB020121DCBFF34F8FBFF379
:1076C0006F8F6178114B20789847FFF79FFFFFF786
:1076D000B3FF0190FFF7C4FF0546019A6178207857
:1076E0000B4B984761782078AA080A4B98470122EB
:1076F00061782078084B03B0BDE830401847C0F8E7
:107700005C12203AD5E700BF00ED00E0A5BD1010E7
:10771000B9C2101009C3101091BF1010B0F5FA5F74
:10772000F7B51CD0B0F5FA4F14BF05250325374B2C
:107730000120B1FA81F498474FF0414101220846F7
:10774000334FB847334901220846B847EB1E640956
:10775000042B07D8DFE803F0050656065800072576
:10776000E5E70C26304605F023F80223224628469A
:107770000021FFF7FFFC284D00212120A847002110
:107780002220A847254D0C212120A8470C2122208A
:10779000A847234B234A01255A6380229A6300227B
:1077A0004FF4007020499A8783F83E200132042A62
:1077B000C3E901101D7001F5007103F10C03F5D14F
:1077C00000261A4D1A4B28469847294619481A4B45
:1077D000AC602E60984701211648184B984701214C
:1077E000174B14489847FFF727FF0446FFF738FF69
:1077F000144ACDE9004011463046134B134CA047C4
:1078000003B0F0BD1826ADE73026ABE799D33F02B1
:10781000390011100000084099CF1010B9CF101096
:1078200000AA071080A9071000A1071054A907108B
:107830004DD43F0200080140A1D43F0241D53F0290
:107840007DD43F0200A9071051823F0265D53F0257
:1078500008B5FFF7B1FE00B908BD00210846FFF7E3
:10786000B9FEF6E7FFF7A8BEFFF7B4BE7047000009
:1078700010B50446094B036001F0C4FD214602F037
:107880000DF801F0DFFA01F0CFFA2046044B40F882
:10789000043B01F09FFE204610BD00BF94DE3F0276
:1078A0007CDE3F0210B50446FFF7E2FF20462421AC
:1078B000FFF721FC204610BD10B58368044613B1C4
:1078C000032201469847204610BD000038B500202D
:1078D00000F034FD43F698250446002000F02EFD0C
:1078E000001B61F10001A84271F1000307D201F011
:1078F000A9FA01F09CFA10B900F082FDEDE701F061
:10790000A1FA01F094FA4FF4FA6001F0E5FB28487F
:1079100000F096F900F014FA01210822C0E90412DF
:107920004FF47A520368C260DB689847014610B191
:10793000204800F085F9204800F082F900221F4B12
:107940001F4800F07DF94FF47A511E4800F078F995
:107950004FF47A711C4800F073F909211B4800F0BC
:107960006FF94FF4FA4000F055FE194C2060B0B1A9
:1079700000234FF47A522371C4E9023200F0E0F997
:1079800003685B69984788B1124800F059F900F024
:10799000D7F903689B699847206800F049FEBDE865
:1079A00038404FF47A510C4800F04AB938BD00BF56
:1079B000E5DC3F021ADD3F0232DD3F020000B03F4E
:1079C00049DD3F025EDD3F026FDD3F0287DD3F02A2
:1079D00040AA07109CDD3F02B1DD3F0230B52148CF
:1079E00089B0FFF78AFB02F0CDFF014605A804F03D
:1079F000B1FB0699F1B11C4800F022F902F0C2FF78
:107A000004460022194903A802F0DCFC01A8012366
:107A1000214603AA04F01EFA01A802F025FF18B1BE
:107A2000134800F00DF9FEE7124800F009F901A82B
:107A300003F086F8242540F6B83001F04DFBDDE96F
:107A4000054305FB0345A54207D0606900F0F0FD42
:107A5000A06800F0EDFD2434F5E7059800F0E8FD9E
:107A600009B030BD18DE3F0225DE3F0237DE3F029F
:107A700049DE3F0261DE3F0270B51426D0E90053B3
:107A8000044606FB0356AE4204D0284604F086FCAA
:107A90001435F8E7206800F0CBFD204670BD884221
:107AA000F8B504460D46164616D9904215D2A2F1F5
:107AB0001406751AA1F114072C44B7421CD02CB13E
:107AC0003146204604F0E6FC337C2374304604F053
:107AD00065FC143E143CF0E70ED0B5420CD02CB13E
:107AE0002946204604F0D6FC2B7C2374284604F05B
:107AF00055FC14351434F0E7F8BD00232DE9F041AE
:107B0000C0E9003383604F6804469F420E4624DD7F
:107B10004FF0140808FB07F000F07CFD0546E0B1CB
:107B2000D4E9001208FB0212FFF7B9FF206800F049
:107B30007FFD2560A760D6E9007308FB0378B84590
:107B400009D03946284604F0BFFC3B7C143505F8C3
:107B5000043C1437F3E7736863602046BDE8F081A6
:107B600070B500218CB0012000F02AFD0023CDE982
:107B70000033029301F066F91A4C05462646694621
:107B800003A8FFF7BAFF03A906A8FFF7B6FF164B35
:107B900006A946F8043B09A8FFF7AFFF09AA32215E
:107BA000304601F05DFF09A8FFF766FF06A8FFF762
:107BB00063FF0E4B03A823602562FFF75DFF0C4BAC
:107BC000236001F03FF94FF4165101F029F901F05B
:107BD00019FC214601F01CFE6846FFF74DFF0CB072
:107BE00070BD00BF50AA07107CDE3F02B8F93F020B
:107BF00094DE3F02104B1A68104B02F57861596011
:107C0000C3F83C1102F54871C3F86C11C3F89C111C
:107C1000C3F8CC1102F5C871C3F82421C3F854216C
:107C2000C3F88421C3F8B421C3F8E421C3F8FC11DC
:107C3000C3F81422704700BF74AA07104C9E0710A7
:107C40000FB413B504AB53F8042B4FF480610B4809
:107C5000019300F009FD00280BDD01F0F3F8044664
:107C60000648FFF71FFA23680246DB6820460349EF
:107C7000984702B0BDE8104004B0704778AA0710DA
:107C8000012070476FF0770070476FF07700704702
:107C900000F0C2B800F0D4B800F0B3B800F0D8B823
:107CA00000F0DFB810B50446024B036000F0A8F8FE
:107CB000204610BD84F73F0210B50446FFF7F2FFDF
:107CC00020462021FFF717FA204610BD10B50446C4
:107CD000024B0360FFF7E6FF204610BDB4F73F02FA
:107CE00010B50446FFF7F2FF20462421FFF703FA00
:107CF000204610BD002330B585B002938B68054641
:107D00000C4633B1022268469847E3680393A368A0
:107D100002936946284600F0BBF804466846FFF720
:107D2000CBFD204605B030BD10B5044600F0D6F8B6
:107D3000024B204623600023236210BDB4F73F02AC
:107D400038B5064D2B683BB92420FFF7D0F904461F
:107D500008B1FFF7E9FF2C60286838BD78AE07103E
:107D6000F8B50746036886699B680C46154601EB23
:107D7000460698473B69C3B901226FF07F017B69D2
:107D800040009A4012B2B44236D2B4F900300444F2
:107D900093FBF2F31BB27F2BA8BF7F238B42B8BFAC
:107DA0000B46803B05F8013BEDE7012B17D17A69C3
:107DB00048F264071149C2F108024000B4421BD2E4
:107DC000B4F90030044493408B4206DBB3F5004F16
:107DD000C8BF3B4625F8023BF0E7084BFAE7AC4248
:107DE00001D1012808D04000B44205D2B4F90030D6
:107DF000044425F8023BF7E7F8BD00BF0180FFFF10
:107E00007047002303771846704710B504462021B9
:107E1000FFF771F9204610BD08B5C368B3F57A5F66
:107E200008D0B3F5FA4F05D0B3F5FA5F1CBF4FF495
:107E30007A53C360017AC068FFF770FC002008BD68
:107E400010B50446FFF704FD01230020237710BD81
:107E500008B5007F20B1FFF705FD003818BF0120ED
:107E600008BD37B5057F04461DB90025284603B077
:107E700030BD0191FFF7F6FC01460028F5D0204601
:107E8000019AFFF76DFF00210846FFF7EDFCEDE7D3
:107E9000F7B5077F06460D461FB90027384603B0E1
:107EA000F0BDFFF7DFFC04460028F6D0024601468D
:107EB0003046FFF755FF4FF480730193AB68009491
:107EC0000BB904F017FE69462846EB6801AA9847EB
:107ED00000210846FFF7C8FCE0E700004FF0010C66
:107EE0000421064AC0E904C14FF4807142600022B7
:107EF0008161034902720160027770470B000C0038
:107F0000E4F73F0200230248036000F01BB900BF02
:107F10007CAE071009B504480068044B03441B6895
:107F20001B68029309BD0000489E07103400000042
:107F300009B504480068044B03441B685B6802935E
:107F400009BD0000489E07103400000009B5044830
:107F50000068044B03441B689B68029309BD000042
:107F6000489E07103400000009B504480068044B1F
:107F700003441B681B69029309BD0000489E07105B
:107F80003400000009B504480068044B03441B6832
:107F90005B69029309BD0000489E07103400000091
:107FA00009B504480068044B03441B689B690293AD
:107FB00009BD0000489E07103400000009B50448C0
:107FC0000068044B03441B68DB69029309BD000091
:107FD000489E07103400000009B504480068044BAF
:107FE00003441B681B6A029309BD0000489E0710EA
:107FF0003400000009B504480068044B03441B68C2
:108000009B6A029309BD0000489E071034000000DF
:1080100009B504480068044B03441B689B6802933D
:1080200009BD0000489E07102400000009B504485F
:108030000068044B03441B68DB68029309BD000021
:10804000489E07102400000009B504480068044B4E
:1080500003441B681B69029309BD0000489E07107A
:108060002400000009B504480068044B03441B6861
:108070005B69029309BD0000489E071024000000C0
:1080800009B504480068044B03441B689B690293CC
:1080900009BD0000489E07102400000009B50448EF
:1080A0000068044B03441B68DB69029309BD0000B0
:1080B000489E07102400000009B504480068044BDE
:1080C00003441B681B6A029309BD0000489E071009
:1080D0002400000009B504480068044B03441B68F1
:1080E0009B6A029309BD0000489E0710240000000F
:1080F00009B504480068044B03441B68DB6A02931B
:1081000009BD0000489E07102400000009B504487E
:108110000068044B03441B681B6C029309BD0000FC
:10812000489E07102400000009B504480068044B6D
:1081300003441B685B69029309BD0000489E071059
:108140004C00000009B504480068044B03441B6858
:108150001B6B029309BD0000489E07103000000011
:1081600009B504480068044B03441B685B6C029328
:1081700009BD0000489E07103000000009B5044802
:108180000068044B03441B689B6C029309BD00000C
:10819000489E07103000000009B504480068044BF1
:1081A00003441B68DB6C029309BD0000489E071066
:1081B0003000000009B504480068044B03441B6804
:1081C0005B6D029309BD0000489E0710300000005F
:1081D00009B504480068044B03441B689B6802937C
:1081E00009BD0000489E07106000000009B5044862
:1081F0000068044B03441B68DB6F029309BD000059
:10820000489E07106000000009B504480068044B50
:1082100003441B68D3F88430029309BD489E0710BD
:108220006000000009B504480068044B03441B6863
:10823000D3F89830029309BD489E071060000000F3
:1082400009B504480068044B03441B68D3F8BC30EC
:10825000029309BD489E07106000000009B504485C
:108260000068044B03441B68D3F8C430029309BD73
:10827000489E07106000000009B504480068044BE0
:1082800003441B68D3F8E030029309BD489E0710F1
:108290006000000009B504480068044B03441B68F3
:1082A000D3F8E430029309BD489E07106000000037
:1082B00009B504480068044B03441B68D3F8F03048
:1082C000029309BD489E07106000000009B50448EC
:1082D0000068044B03441B68D3F8F430029309BDD3
:1082E000489E07106000000009B504480068044B70
:1082F00003441B685B68029309BD0000489E071099
:108300000000000009B504480068044B03441B68E2
:10831000DB68029309BD0000489E071000000000C2
:1083200009B504480068044B03441B685B69029369
:1083300009BD0000489E07100000000009B5044870
:108340000068044B03441B68DB6D029309BD000009
:10835000489E07100000000009B504480068044B5F
:1083600003441B689B68029309BD0000489E0710E8
:108370005000000009B504480068044B03441B6822
:10838000DB68029309BD0000489E07105000000002
:1083900009B504480068044B03441B685B6B0293F7
:1083A00009BD0000489E07104800000009B50448B8
:1083B0000068044B03441B681B6D029309BD000059
:1083C000489E07104800000009B504480068044BA7
:1083D00003441B68DB6E029309BD0000489E071032
:1083E0004800000009B504480068044B03441B68BA
:1083F0001B6F029309BD0000489E07104800000053
:1084000009B504480068044B03441B689B68029349
:1084100009BD0000489E07102C00000009B5044863
:108420000068044B03441B68DB6B029309BD00002A
:10843000489E07102C00000009B504480068044B52
:1084400003441B685B68029309BD0000489E071047
:108450002800000009B504480068044B03441B6869
:108460009B68029309BD0000489E07102800000089
:1084700009B504480068044B03441B68DB68029399
:1084800009BD0000489E07102800000009B50448F7
:108490000068044B03441B681B69029309BD00007C
:1084A000489E07102800000009B504480068044BE6
:1084B00003441B685B69029309BD0000489E0710D6
:1084C0002800000009B504480068044B03441B68F9
:1084D0009B69029309BD0000489E07102800000018
:1084E00009B504480068044B03441B68DB69029328
:1084F00009BD0000489E07102800000009B5044887
:108500000068044B03441B681B6A029309BD00000A
:10851000489E07102800000009B504480068044B75
:1085200003441B681B6B029309BD0000489E0710A3
:108530002800000009B504480068044B03441B6888
:108540005B6B029309BD0000489E071028000000E5
:1085500009B504480068044B03441B681B6C029374
:1085600009BD0000489E07102800000009B5044816
:108570000068044B03441B685B6C029309BD000058
:10858000489E07102800000009B504480068044B05
:1085900003441B685B68029309BD0000489E0710F6
:1085A0000800000009B504480068044B03441B6838
:1085B0005B69029309BD0000489E07100800000097
:1085C00009B504480068044B03441B68DB6A029346
:1085D00009BD0000489E07100800000009B50448C6
:1085E0000068044B03441B68D3F88830029309BD2C
:1085F000489E07100800000009B504480068044BB5
:1086000003441B68D3F89430029309BD489E0710B9
:108610000800000009B504480068044B03441B68C7
:108620001B68029309BD0000489E0710040000006B
:1086300009B504480068044B03441B685B68029357
:1086400009BD0000489E07100400000009B5044859
:108650000068044B03441B689B68029309BD00003B
:10866000489E07100400000009B504480068044B48
:1086700003441B685B6A029309BD0000489E071013
:108680000400000009B504480068044B03441B685B
:10869000DB6A029309BD0000489E07100400000039
:1086A00009B504480068044B03441B68DB6B029364
:1086B00009BD0000489E07100400000009B50448E9
:1086C0000068044B03441B681B6C029309BD000047
:1086D000489E07100400000009B504480068044BD8
:1086E00003441B685B6C029309BD0000489E0710A1
:1086F00004000000002340681A46FFF79DBE0022D8
:1087000002214068FFF7B4BE002240681146FFF71F
:10871000A1BE002240681146FFF7B8BE00234068A2
:108720001A461946FFF7C0BE002340681A4619468C
:10873000FFF7C8BE00214068FFF70ABF002140686C
:10874000FFF714BF0022406881F00101FFF7C8BEA7
:1087500000224068FFF7E0BE002240681146FFF7A4
:10876000E9BE002240681146FFF7C8BE2DE9F0437C
:1087700095B014460D46074600F0C2FB00211C22AE
:108780000DA8009104F014FB402320460C93002117
:108790006B460CAAFFF7EEFD044600284BD10246BB
:1087A00001216868FFF772FE022180462246686850
:1087B000FFF76CFE21468146009E002E3BD000292B
:1087C00039D17368022B03D00A2B11D0F669F4E774
:1087D000B8F1000FFAD0716906A804313C1D07AD4D
:1087E00000F0BCFB0FCD0FC42B6841462370EDE7B2
:1087F000B9F1000FEAD0102201A8746904F0D8FA88
:10880000062301AD8DF8143004F1080318342A460C
:1088100018685968083303C2A3421546F7D101A965
:1088200006A83C1D07AD00F079FB0FCD0FC42B68E7
:1088300049462370CAE70098FFF78EFD384615B009
:10884000BDE8F083024B034A1A6000225A60704769
:1088500080AE071014F83F02002240681146FFF76F
:1088600015BE002240681146FFF748BE002240684E
:108870001146FFF75FBE00224068FFF74DBE0022A1
:10888000406881F00101FFF72BBE002340681A46C3
:108890001946FFF717BE002340681A461946FFF72E
:1088A00003BE002240681146FFF7D4BD002202211A
:1088B0004068FFF7DDBD002340681A46FFF7BCBDE6
:1088C0000422024B5A60024A1A60704788AE0710B1
:1088D00050F83F0270474174704708B5007CFFF7BD
:1088E000F9FB20EAE07008BD08B5007CFFF7ACFB9F
:1088F00020EAE07008BD08B5007CFFF7C1FB40EA44
:10890000E07008BD08B5007CFFF7ACFB40EAE07002
:1089100008BD007CFFF7C2BB37B5457C04462DB1CE
:10892000207C03B0BDE83040FFF780BB007C0191A4
:10893000FFF7D0FB00280199F2DC284603B030BDD8
:1089400010B504461421FEF7D6FB204610BD0000EA
:1089500010B54FF47A730446084611460022C4E964
:108960000123044B2074236001236374FFF7CEFBC3
:10897000204610BD94F83F020023007CFFF7B8BBEF
:108980000022FFF7F9BF007CFFF742BB007CFFF736
:1089900093BB012200F1100313F8101C18460129A3
:1089A00008D153F8041C02EB4102013A03F1100311
:1089B000F2D17047022904BF53F8041C5218F4E79F
:1089C0000EB4F0B588B0102100AF07F1340555F8AA
:1089D000042B04462B4678187A60FD60FFF744FEAE
:1089E0000F287A681AD900F1080323F007036E46AE
:1089F000ADEB030D411C2B466846FD60FFF734FECE
:108A0000021E04DD2368694620469B689847B546E8
:108A10002037BD46BDE8F04003B070470028F7D0CE
:108A2000236802469B68204607F110019847EFE74C
:108A300010B543680446013B436063B903689B6813
:108A40009847A368013BA3602BB923682046BDE883
:108A50001040DB68184710BD38B50B68044603604A
:108A60004D6843689D4208D015B16B6801336B6057
:108A7000606808B1FFF7DCFF656038BD07B50368C3
:108A80008DF8071001229B680DF10701984703B08C
:108A90005DF804FB0B461146002210B50446C0E900
:108AA000002283600BB9204610BDFFF7D5FFFAE71F
:108AB0008368EBB11A78032A1AD8DFE802F00417AA
:108AC000021B0520704702685B685268D05C2D2845
:108AD00012D0A0F13003092B0ED974280ED06628CD
:108AE0000CD0A0F16E0358425841704706207047E1
:108AF0000020704704207047032070470220704711
:108B000010B50446FFF7D4FF02280ED0C31EDBB217
:108B1000012B14D82268A36850685B680A22BDE85C
:108B200010400021184404F04FBA2268A36852682C
:108B30005B68D05CA0F174035842584110BD00201E
:108B4000FCE7000038B500230446C0E900330E48B6
:108B5000C4E90203A9B10B78032B06D08BB91368C3
:108B600058684B68C35C6E2B07D013684D68586813
:108B70008B6828445B1BA060E36011462046FFF72A
:108B80006BFF204638BD00BF17DE3F0238B5002519
:108B90000B4604461146C0E90055C0E90255C0E93C
:108BA00004554BB11A78012A06D103F11002DB6893
:108BB00082604361FFF750FF204638BD10B543691E
:108BC000044663B18068013BE0601030A060206122
:108BD000636113B1FFF7DDFEA060012000E01846DD
:108BE00010BD10B57D210446FFF748FF0123204644
:108BF000237110BD08B50379012B02D0022B04D0DC
:108C000008BD2C21FFF73AFFFAE73A21FAE710B541
:108C10000446FFF7EFFF20467B21FFF72FFF0023DD
:108C20002046237110BD000013B504460191FFF7E3
:108C3000E1FF23682046DB68019A03499847012336
:108C40002046237102B010BD2FDD3F0213B504464C
:108C50000191FFF7CFFF23682046DB68019A0349A3
:108C6000984701232046237102B010BDBCF83F0293
:108C70002DE9F0470D469046222104462F46FFF786
:108C8000FDFEDFF8A490A8444745BA463DD017F84A
:108C9000016B222E06D05C2E04D0304604F046F83C
:108CA0000028F1D12368294620469B68AAEB0502DB
:108CB00098475C212046FFF7E1FE0D2E0AD8072ECB
:108CC0001CD9A6F10803052B18D8DFE803F00D0F17
:108CD00011171315222E01D05C2E0FD131462046DC
:108CE000FFF7CCFE3D46CFE76221F8E77421F6E7B7
:108CF0006E21F4E76621F2E77221F0E7236832463D
:108D000049462046DB689847ECE7BD4205D023681A
:108D1000294620469B687A1B984722212046FFF768
:108D2000ADFEBDE8F08700BFBFF83F0213B50446B3
:108D3000CDE90021FFF75EFFDDE900212046FFF7C6
:108D400097FF02232046237102B010BD13B50446DD
:108D5000CDE90021FFF74EFFDDE900212046FFF7B6
:108D600087FF01232046237102B010BD10B50446D1
:108D7000006808B1FFF75CFE204610BD41747047E3
:108D80007047704708B50021007CFFF709F940EAF9
:108D9000E07008BD08B50121007CFFF701F940EA49
:108DA000E07008BD08B5007CFFF7ECF820EAE07041
:108DB00008BD08B5007CFFF7D7F820EAE07008BDD1
:108DC00013B50446007C0191FFF7DCF800280199F7
:108DD00001DC607C20B1207CFFF7F0F820EAE07035
:108DE00002B010BD007CFFF7F7B810B5044614219F
:108DF000FEF781F9204610BD10B54FF47A73044692
:108E000008460021C4E90113044B207423600123A8
:108E100011466374FFF77EF8204610BDD0F83F027C
:108E20000022007CFFF784B8007CFFF78FB8007C3D
:108E3000FFF7E0B810B504461422002103F0B8FF94
:108E4000204610BD10B588B003A8FFF7F3FF0C4C07
:108E5000D4E88F1F11F001010FD120460191FEF7D8
:108E60005DF9019948B103AA0648FFF7C5FF2046FE
:108E7000FEF759F9044803F053FF024808B010BD4B
:108E800090AE071094AE071051993F02704710B58D
:108E900004461821FEF72FF9204610BDF0B5037DDA
:108EA0000E46062B4FF000048DB000F1040712D0DF
:108EB00000F1080515F8011D0A22304601F013F9EA
:108EC000AF42044419D0002CF4D02E21304601F0DA
:108ED00007F90444EEE72F236A4639460A208DF845
:108EE0000040FFF721F96846FEF7DCF833680246D8
:108EF00069463046DB689847044620460DB0F0BD11
:108F000010B50446044B1122002140F8043B03F045
:108F10004FFF204610BD00BF00F93F020346074A3D
:108F200010B543F8042B01F1100251F8044B9142A3
:108F300043F8044BF9D10A781A7010BD00F93F02CA
:108F400010B59DF8084044EA032343EA0242042393
:108F500042EA01614160037510BD000007B5064B90
:108F60000360CB7800938B784A780978FFF7E8FFA5
:108F700003B05DF804FB00BF00F93F02014B18602D
:108F8000704700BF80A0071008B50F4B43B1FFF733
:108F900059FF03681B699847002801DD00E000BF06
:108FA0000A4B43B103F074FB03681B699847002820
:108FB00001DD00E000BF064B0BB103F0AFFB054B3A
:108FC0000BB103F0E1FB08BD000000000000000051
:108FD000000000000000000008B5FFF7D5FFFFF714
:108FE0009FF9014B186008BD20AF07100548064ADD
:108FF00008B5121A054903F0B4FE054B054A1A607C
:1090000008BD00BF00B4071004B40710D0FE5F080D
:1090100000B407101E1C279A002307B51A466FF0EC
:1090200077010093FFF7E8FA03B05DF804FB000056
:1090300007B543880A2B08D0502B0BD1094B1B686E
:109040004BB103B05DF804EB1847FFF7E5FF03B041
:109050005DF804FB00231A466FF077010093FFF7D9
:10906000CBFAF4E7ACAE0710002110B51148FFF7BA
:1090700033FB114B1A68114B9A420CBF012200229C
:109080000F4B1A7001D0FFF7B1FFFFF72DF904461F
:1090900003F096FE0B4B13B1204600E000BF002109
:1090A0000848FFF7BBF9BDE8104000210648FFF76C
:1090B00095BA00BF4D9B3F0200B407101E1C279AB3
:1090C000A8AE071000000000019C3F020022014BE7
:1090D0009A607047B0AE07100021FFF763BA000036
:1090E000024B1A68024B1A60704700BF74A0071049
:1090F000C0AE071080680368DB68184770470846F1
:1091000011B10B685B68184770477047704770472C
:10911000704738B504460D4600682E2103F08BFEDB
:109120002368C31A2B6023B1037803B1013023688D
:109130002060184638BD10B504460C21FDF7DBFF52
:10914000204610BD10B504460421FDF7D4FF20468B
:1091500010BD10B504460421FDF7CDFF204610BD1B
:10916000FFF71AB808B5FDF793FFB0FA80F0400991
:1091700008BD704710B50C46FFF764FE844205D168
:10918000FFF760FEBDE81040FFF74EBE03F080FA27
:10919000844205D103F07CFABDE81040FFF7F3BB31
:1091A0002CB123682046BDE810405B68184710BD0D
:1091B0000B6803604B68436013B15A6801325A6010
:1091C000704713B5044608460191FDF76BFF024650
:1091D0002046019902B0BDE81040FFF7B7BD13B5B6
:1091E000044608460191FDF75DFF024620462368CC
:1091F0000199DB6802B0BDE81040184707B5036865
:109200008DF807100122DB680DF10701984703B0C4
:109210005DF804FB0A6810B502604A6842600022EB
:10922000C0E9022202618C688A608460CC68CA60EE
:10923000C4600C690A61046110BD00002DE9F74F9C
:109240004FF0140AD0E90084174645460AFB04F49F
:109250000093174BA4105C43002C21DD66100AFB21
:1092600006F005EB0009B9F804B03A465F4528BF9F
:109270005A462858019103F0F0FD00284FF00103F1
:1092800001990BD15F4503D1009A13703446E3E78F
:10929000FCD9A61B09F11405013EF7E7F9DBF5E758
:1092A000A5EB08050248AD10684303B0BDE8F08F98
:1092B000CDCCCCCC7FB50369057E019103B3F9B168
:1092C000002600F10C04039603A901A8FFF721FF73
:1092D0000146A8B10DF10B032046039A8DF80B60EF
:1092E000FFF7ACFF9DF80B3053B12368142404FB47
:1092F0000034B4F906300834002BA8BFDDB2E3E730
:10930000284604B070BD0EB4F0B58CB000AF07F1C4
:10931000440555F8042B04462B46202107F1100084
:109320007A60FD60FFF7A0F91F287A681AD900F16A
:10933000080323F007036E46ADEB030D411C2B46DB
:109340006846FD60FFF790F9021E04DD2368694658
:109350002046DB689847B5463037BD46BDE8F0404B
:1093600003B070470028F7D023680246DB68204628
:1093700007F110019847EFE710B5084CD4E88F3F8C
:10938000DB0709D42046FDF7C9FE28B12046FDF7CA
:10939000CAFE034803F0C4FC024810BDC8AE071063
:1093A000DB9C3F0278A0071010B5084CD4E88F3F33
:1093B000DB0709D42046FDF7B1FE28B12046FDF7B2
:1093C000B2FE034803F0ACFC024810BDCCAE07105F
:1093D000439D3F027CA0071038B500250446C0E934
:1093E0000055C0E904558560856140F8245FFEF7AB
:1093F000B7FEFFF7C1FFE061FFF7D6FF25732062DC
:10940000204638BD10B50A4CD4E88F3FDB070CD49A
:109410002046FDF783FE40B10648FFF7DDFF2046FA
:10942000FDF781FE044803F07BFC024810BD00BF3D
:10943000C4AE0710D4AE071049A53F020023024A6C
:1094400002490348FEF7CEBF31A33F02BDA23F024F
:109450003DA23F0200231A4619461846FEF7C2BF36
:1094600037B504468D686846FFF7A2FE6A4629466E
:109470002046FFF78BFB01A8FFF778FC204603B0DE
:1094800030BD37B50446CD686846FFF791FE6A46A1
:1094900029462046FFF756FB01A8FFF767FC204648
:1094A00003B030BD37B504460D696846FFF780FE4E
:1094B0006A4629462046FFF7EDFA01A8FFF756FC59
:1094C000204603B030BD000070B58AB00D4601469D
:1094D00004A8FFF7C5FF144E04A8FFF76FFBE8B11F
:1094E000684604A9FFF7CDFF31460298FFF73AFE20
:1094F000044610B12C1E18BF012401A8FFF736FC4A
:10950000002CE9D0684604A9FFF7CCFF6846FFF7B6
:10951000F7FA286001A8FFF729FCDDE705A8FFF7A7
:1095200025FC0AB070BD00BF28F93F0237B50C46D4
:10953000134920461546FDF7ABFD50B9FFF782FCF5
:109540004FF41651FFF76CFC03B0BDE83040FFF755
:1095500079BC20460B49FDF79BFD78B94FF41653B3
:1095600001A928460193FFF7AFFF03F091F8019995
:10957000FFF706FA03F08CF803B030BD0020FBE7DC
:109580002DF93F0234F93F0270B51426D0E900539B
:10959000044606FB0356AE4205D005F10800FFF76E
:1095A000F3FF1435F7E72068FFF742F8204670BD57
:1095B00070B50446D0E9005305EB0316AE4204D063
:1095C000284602F0EBFE1035F8E72068FFF730F888
:1095D000204670BD10B504460C30FFF7D5FF20467D
:1095E000FFF7E6FF204610BD10B50446034B40F8D8
:1095F000043BFFF7EFFF204610BD00BF7CDE3F02BB
:1096000010B50446FFF7F0FF20462421FDF773FD57
:10961000204610BD10B50446024B0360FFF7E4FF7F
:10962000204610BDD0F93F0210B50446FFF7F2FF07
:1096300020462421FDF75FFD204610BD0022C0E931
:109640000022826010B50C680A6004604C684A60B1
:1096500044608C688A60846010BD10B5044603685D
:109660001868FEF7A7FD204610BD00002DE9F04F59
:1096700087B003931C4B80465B688946C3F308039D
:1096800016466BB9FFF7BEFE044600F12403406A9C
:109690000593FFF765FD237B2BB105A8FFF7DDFFE1
:1096A00007B0BDE8F08F01235FFA89F92373D4E98D
:1096B000005305EB830AAA4512D055F8047B3146C6
:1096C000381DFFF7F7FD8145F5D3039A3B680092FB
:1096D000D3F808B04A46334641463846D847EAE709
:1096E00000232373D9E700BF00ED00E02DE9F74F19
:1096F0009B461A4B80465B688946C3F308031646AF
:109700006BB9FFF77FFE044600F12403406A019322
:10971000FFF726FD237B2BB101A8FFF79EFF03B0C7
:10972000BDE8F08F0123F6B22373D4E9005305EBB3
:10973000830A55450ED055F8047B5946381DFFF76E
:10974000B9FD8642F5D33B684A4641463846DB6858
:109750009847EEE700232373DEE700BF00ED00E04B
:109760002DE9F341164B05465B680F46C3F308032A
:109770001BBBFFF747FE044600F12403406A019338
:10978000FFF7EEFCD4E90063462406EB8308B045FE
:1097900009D101A8FFF761FFA542B4BF0020012055
:1097A00002B0BDE8F08156F8040B39460430FFF7EB
:1097B00081FD8442A8BF0446E9E70020F0E700BF2E
:1097C00000ED00E0F8B5D0E901539D4204460E4695
:1097D0000DDB6F1C002F006804DDB900FEF736FFBB
:1097E00018B9F8BDFEF724FF00202060A7602768A5
:1097F000626807EB85019200A2EB8502081D03F069
:10980000BDFA47F825606368012001336360E8E72B
:1098100037B5044600F12403406A01930D46FFF773
:109820009FFCD4E9003203EB8202934219460AD02E
:1098300009680433A942F8D101A8FFF70EFF0025FB
:10984000284603B030BD29462046FFF7BBFF05463A
:109850000028F1D06368012B01D1FFF7EFFD01A8CB
:10986000FFF7FBFEECE70B4670B50446D0E90002BB
:1098700000EB820282420FD001461D6851F8046B52
:10988000AE4207D1521A03F079FA01206368013B16
:10989000636070BD0846EDE70020FAE71FB5044697
:1098A00000F12403406A01910393FFF759FC20461D
:1098B00001A9FFF7D8FF18B163680BB9FFF7CAFD1C
:1098C00003A8FFF7CAFE04B010BD182370B5044604
:1098D000D0E9045603FB0656AE4215D0204605F1EA
:1098E0001001FFF7C0FF63680BB9FFF7B3FDE06934
:1098F00029690368DB689847696919B1206A0368B8
:10990000DB6898471835E7E71826D4E9045306FBC7
:109910000356AE4204D0284602F040FD1835F8E761
:109920000023636170BD73B50446FFF793FD04F136
:109930002403606A0193FFF713FC2046FFF7C5FF7D
:1099400001A8FFF78AFE606A08B1FEF717FCD4E9A8
:109950000453182606FB0356AE4204D0284602F0F4
:109960001DFD1835F8E72069FEF762FE2068FEF756
:109970005FFE204602B070BD0148FFF7D4BF00BFB4
:10998000D4AE07108842F8B504460D46164615D9E0
:10999000904214D2A2F11406751AA1F114072C44B6
:1099A000B7421AD01CB131462046FFF733FC06F10E
:1099B0000800FFF7E9FD143E143CF1E70DD0B54275
:1099C0000BD01CB129462046FFF724FC05F1080006
:1099D000FFF7DAFD14351434F1E7F8BD8842F8B525
:1099E00004460D46164614D9904213D2A2F1100631
:1099F000751AA1F110072C44B74218D01CB131469A
:109A0000204602F047FD304602F0C8FC103E103CF4
:109A1000F2E70CD0B5420AD01CB12946204602F02C
:109A200039FD284602F0BAFC10351034F2E7F8BDD3
:109A300070B50E1E054611DD3001FEF7EBFD044644
:109A400058B1D5E9001201EB0212FFF7C7FF2868F1
:109A5000FEF7EEFD01202C60AE6070BD0024F6E73D
:109A60002DE9F04F90460023462295B00391D8F897
:109A7000041004469942C0E90033C0E90233C0E94A
:109A80000433CDE9083302760A9323DCD8E9005782
:109A9000142303FB0757AF423BD029460BA802F023
:109AA000F9FC0BA90FA8099E02F0F4FCDDE90913EB
:109AB00099421BDA089B099A03EB0616314603EB21
:109AC000021206F11000FFF789FFEEB9099B01337E
:109AD000099311E008A8FFF7ABFF0028D6D108A82A
:109AE000FFF766FD204615B0BDE8F08F013108A8EC
:109AF000FFF79EFF0028DDD10FA802F04FFC0BA856
:109B000002F04CFC1435C6E730460FA902F0C2FC47
:109B1000DCE700264FF01409CDE90B660D96DDE970
:109B200008239E427CDA3301D35806930BB90136E1
:109B3000F5E70023079309FB06F30BAD029307A992
:109B400006A8FFF7E6FA82460028F0D04FF000039F
:109B500001468DF817302846079A0DF11703FFF7D5
:109B60006DFB9DF817700190002F4AD1BDF81C3095
:109B7000CDE91177ADF840304FF6FF73CDF83CA03A
:109B8000ADF842301397D5E90132934217DB03F168
:109B9000010ABAF1000F30DD09FB0AF0FEF73AFDC9
:109BA000834660B3D5E9001209FB0212FFF7EAFE13
:109BB0002868FEF73DFDC5F800B0C5F808A02B6881
:109BC000019A09FB023A6A68514609FB02320AF11E
:109BD0001400FFF7D7FEBAF1000F03D050460FA9CB
:109BE000FFF718FB6B6801336B6011A8FFF7CCFC23
:109BF0003FB10BA8FFF7C8FC71E7BB46D8E70127C8
:109C0000F3E7019B2D6809FB0355069B1B782BB9D5
:109C1000D8F80030029A13441B7CEB8008358EE79D
:109C20002168226062686360A36809920A9A0A93B5
:109C3000E368A2600B9A0B932369E2600C9A0C9381
:109C4000636922610D9A0D93039B089162612376EB
:109C5000CFE70000F0B504462646174687B00D460C
:109C600068461946FDF749FF0B4B694646F8043B29
:109C700003A8FDF742FF394603AA3046FFF7F0FE7E
:109C800003A8FDF7F9FE6846FDF7F6FE2046034BF4
:109C90002562236007B0F0BD7CDE3F02B8F93F02C9
:109CA000F0B50F4685B038461C4916461D460A9C3D
:109CB000FDF7EEF9C0B9A4B1294601A8FFF7BEFC33
:109CC0002420174902F012FF054630B101AB32469D
:109CD0002146FFF7BFFF134B2B6001A8FDF7CCFE19
:109CE0002C46204605B0F0BD38460F49FDF7D0F9A7
:109CF00090B9002CF5D0294601A8FFF79FFC24203D
:109D0000074902F0F3FE05460028E6D03246214618
:109D100001ABFFF79FFFE0E70024E2E73CF93F02D9
:109D2000EBFC3F02D0F93F0240F93F02014B024AEF
:109D30001A607047D0AE071051F93F022DE9F04785
:109D4000089DD0F8209004460E4617469846FFF727
:109D500079F881454DD02B79190704D520466A69D9
:109D60005449FFF7D0FAB8F1000F0DD05B2120461F
:109D7000FFF744FA41462046FFF731FA23680222F2
:109D80002046DB684C4998472B79DA0724D5D5F86B
:109D900008802F21404603F080F808B100F1010847
:109DA00041462046FFF71BFA2B799B0708D53A213D
:109DB0002046FFF723FA2046EA684049FFF7A3FA56
:109DC0002A79236812F0040F20464FF00202DB6864
:109DD00014BF3B493B4998472B7958071DD5296942
:109DE0000B461A4613F8010B60B1202808D119461A
:109DF000F7E73548FEF7B5FC0028ACD0BDE8F087A2
:109E00002828EED12368521A2046DB689847236839
:109E100004222046DB682D49984700213846FEF78A
:109E2000D3FA01462046FFF7DAF9236802222046DA
:109E3000DB68244998471EB131462046FFF7CFF929
:109E40002B7913F0300F2CD023682149DB680222D4
:109E5000204698472B79D9060AD523680722204641
:109E60001C49DB6898472046AA691B49FFF74BFA53
:109E70002B799A0611D5DB0605D5236802222046E8
:109E8000DB680F4998472368204614490A22DB689B
:109E900098472046E969FFF7A2F95D212046FFF7C0
:109EA000ADF923682046BDE8F0470222DB680C4983
:109EB000184700BF55F93F025CF93F022FDD3F0212
:109EC0005FF93F0264F93F0280AE071062F93F027A
:109ED00067F93F026AF93F0272F93F0275F93F02E2
:109EE00015DE3F022DE9F0410446076A0D4616468D
:109EF000FEF7A8FF874207D0206A3246036829464A
:109F0000BDE8F041DB6818470348FEF72AFC00284B
:109F1000F2D0BDE8F08100BF80AE07102DE9F0431C
:109F200085B0D0F8209005460F4690461E460C9C02
:109F3000FEF788FF814505D14948FEF712FC00284D
:109F400040F08A804FF000092B6A464A01A801922E
:109F500003938DF80890FEF75AFE49464046FEF7F7
:109F600033FA80464049012201A8FEF7DFFE414650
:109F7000FFF727F93FB13D49012201A8FEF7D6FEC0
:109F80003946FFF71EF93EB13949012201A8FEF713
:109F9000CDFE3146FFF715F92379DF070ED5A66808
:109FA0002F21304602F079FF00B1461C31490122D1
:109FB00001A8FEF7BBFE3146FFF703F923799E07A0
:109FC00007D52D49022201A8FEF7B0FEE168FEF791
:109FD0002BFE2379580714D5266933461F4613F8FC
:109FE000012B2AB1202A01D11E46F7E7282AF5D1F4
:109FF0000222224901A8FEF799FE3146BA1BFEF75C
:10A00000A5FE2379190707D51D49012201A8FEF7EE
:10A010008DFE6169FEF71AFE2379DA0608D504225F
:10A0200018490DEB0200FEF781FEA169FEF7FCFD69
:10A0300023799B0607D51449062201A8FEF776FE70
:10A04000E169FFF7BEF801A8FEF7CBFD286A0222FE
:10A0500003680E49DB68984705B0BDE8F08300BF90
:10A0600080AE0710A0F93F0232F93F0280F93F02AB
:10A070006FFE3F0282F93F0284F93F0287F93F02F7
:10A080008AF93F028CF93F0291F93F0215DE3F0247
:10A09000F8B506460D4600248F18BD420CD0336833
:10A0A00030469B6815F8011B9847031E01DB1C44D2
:10A0B000F3E7002C08BF1C462046F8BD13B5044644
:10A0C000084659B10191FCF7EDFF0246204623688E
:10A0D0000199DB6802B0BDE81040184702B010BD1E
:10A0E00003689B6818470023012A98BF0A2230B5ED
:10A0F0008BB08DF8243009AC0D46B1FBF2F101FBB9
:10A10000125303F0FF03092B94BF30333733DBB214
:10A11000AA4204F8013DEFD92146FFF7CFFF0BB06B
:10A1200030BD70477047704770470000064B10B550
:10A13000994200F10C0405D0084602F0DFFC00282B
:10A1400008BF0024204610BD84F83F02064B10B51E
:10A15000994200F10C0405D0084602F0CFFC00281B
:10A1600008BF0024204610BD84F83F02064B10B5FE
:10A17000994200F10C0405D0084602F0BFFC00280B
:10A1800008BF0024204610BD84F83F0210B50446E5
:10A190006821FCF7B0FF204610BD10B50446282109
:10A1A000FCF7A9FF204610BD10B504463021FCF78E
:10A1B000A2FF204610BD6821FCF79DBF2821FCF7B7
:10A1C0009ABF3021FCF797BFF0B50025EC1C8C42FC
:10A1D0000DD86E1C875D445D974205D12644B1427F
:10A1E00005D31D60601CF0BD01342544EEE700205E
:10A1F000F9E700000A20024A0249FEF7C9B800BF89
:10A20000D58E3F0210FA3F0210B5836804462BB189
:10A210000322014698470023C4E9023310BD10B55C
:10A22000836804462BB10322014698470023C4E902
:10A23000023310BD0023202210B504468AB0CDE9B8
:10A240000223084A01200092074902AAFEF7AEF84D
:10A25000002322462068054900880AB0BDE8104066
:10A26000FDF7EEBF32FA3F0227FA3F0249C53F022F
:10A2700010B5013802EB410110F8013F1B0903F151
:10A280003004392C88BF03F1370402F8024B0378FD
:10A2900003F00F0303F13004392C88BF03F13704B6
:10A2A000914202F8014CE7D110BD10B50446583078
:10A2B000FDF702FB04F14800BDE8104002F06EB863
:10A2C00038B5036805468B420C4608D011B14B687F
:10A2D00001334B60286808B1FEF7AAFB2C6038BD3B
:10A2E000A0F13003DAB2092A01D818467047A0F16C
:10A2F0006103052B01D857387047A0F14103052BA6
:10A3000094BF37384FF0FF3070470000002310B57E
:10A310000370044B04461868FDF73EFF01232046F6
:10A32000237010BD00AF071010B5037804461BB1B1
:10A33000024B1868FDF73EFF204610BD00AF071026
:10A340002DE9F843064617460D46B1B34FF0000914
:10A350004FF006081121284602F093FD484508D821
:10A3600042460021304602F023FD0020B771BDE8CF
:10A37000F883B8F1000FF8D015F80900FFF7B0FF27
:10A38000030617D40001C4B208F1FF381121284692
:10A3900006F8084002F075FD09F10109814509D26E
:10A3A00015F80900FFF79CFF43B2002BA4BF23431D
:10A3B00006F8083009F10109CCE70148D7E700BFEA
:10A3C000F2FEFFFF10B50446FFF7BAFF204610BDAE
:10A3D00082B06A4603460868496803C26A4603CAEF
:10A3E00018601846596002B0704708B582798B79B9
:10A3F0009A4206D1062202F0A4FCB0FA80F040098D
:10A4000008BD0020FCE74FF0FF330360838000208D
:10A4100070470021024608B501604160FFF7F3FF75
:10A420001046917108BD00000123024610B503617A
:10A43000044B03F1100153F8044B8B4242F8044BD8
:10A44000F9D110BDAEDC3F020B7C30B513F0FD033B
:10A450000DD1024603610C4B03F1100453F8045B69
:10A46000A34242F8045BF9D10B88838130BD0123FC
:10A470000361034601F1100251F8044B914243F885
:10A48000044BF9D1F2E700BFAEDC3F0210B50B463A
:10A490000446B1B1012A01F110020AD1014653F874
:10A4A000040B934241F8040BF9D1012323612046A8
:10A4B00010BD411E12F8010D9A4201F8010FF9D1A9
:10A4C000F3E7102202F074FCF1E738B504460D46BC
:10A4D000FFF7AAFF002320462361A58138BD08B5F8
:10A4E00002690B699A4206D1102202F02AFCB0FAE6
:10A4F00080F0400908BD0020FCE710B500F10F0313
:10A5000001391C78834201F8014F03F1FF33F8D180
:10A5100010BD2DE9F0411F460D468EB000295BD0DD
:10A52000DAB1D0F81080541EB8F1000F19D1838928
:10A5300002215BBA05AA01A8ADF80430CDF8148059
:10A54000FFF796FE042C28BF04242846224605A9BE
:10A5500002F007FC621C05F8048010460EB0BDE84E
:10A56000F08101A9FFF7C9FF05AA7FB1102101A859
:10A57000FFF77EFE242C28BF24242846224605A966
:10A5800002F0EFFB0023621C2B55E6E704212D2689
:10A590000DEB0100FFF76CFE02210DF11D0202A878
:10A5A0008DF81C60FFF764FE02210DF122020DF10F
:10A5B0000A008DF82160FFF75BFE02210DF12702F2
:10A5C00003A88DF82660FFF753FE06218DF82B6057
:10A5D0000BAA0DF10E00CBE70A46BEE710B5044604
:10A5E0008AB00023252208466946FFF792FF694694
:10A5F000204601F01EFF20460AB010BDF7B5054603
:10A6000016461F460A46D0E9000101ABFFF7DCFD04
:10A6100030F002040CD0841EBC4228BF3C463EB140
:10A6200001992B68023122463046194402F099FB09
:10A63000204603B0F0BD37B513460C4601920A46DA
:10A6400008210546FFF7DAFF40B9224609212846CE
:10A65000019B03B0BDE83040FFF7D0BF03B030BD71
:10A66000F0B50C4689B00C49054601F0E2FE1F2208
:10A6700069462046FFF7DFFF064650B16C460027CB
:10A68000284614F8011B01F053FF10B10137BE42F8
:10A69000F6D1284609B0F0BD17DE3F0207B5022308
:10A6A000192101AAFFF7AAFF08B1BDF8040003B001
:10A6B0005DF804FB38B54FF6FF7300250446438070
:10A6C0000E22294605700571063002F071FB04F177
:10A6D0001400FFF7A9FE04F12800FFF7A5FE0449C6
:10A6E00004F13C0001F0A5FE2046656538BD00BFC1
:10A6F00017DE3F0238B50D680446014605F1280013
:10A70000FFF7EDFE40B1AB89A28A9A4205D8E08AF4
:10A71000984234BF0020012038BD0020FCE710B56E
:10A72000D0E9063203EBC2029342184605D0046812
:10A73000083324888C42F7D110BD0020FCE70000CC
:10A74000002370B5036005466820FCF7D0FC041EAA
:10A7500004F10C0607D00123C4E90133044B304651
:10A760002360FFF7A7FF2846C5E9006470BD00BF5E
:10A7700034FC3F0210B5036886B01A7852BB4FF61E
:10A78000FF705C88844225D0188A30B3CDE903225B
:10A790000592134A0092134ACDE901235A88ADF875
:10A7A0000C201A8AADF80E209A89ADF8102059B104
:10A7B0001A79920644BF022205921B79DB0642BF3A
:10A7C000059B43F00103059300216846FDF77EFDDC
:10A7D00006B010BD6FF0D100FAE76FF07700F7E731
:10A7E000030018008DB53F02F8B500260546066047
:10A7F0002820FCF77CFC041E04F10C070AD001237E
:10A80000C4E90133054B38462360FFF70DFE26628D
:10A8100084F824602846C5E90074F8BD50FC3F0266
:10A8200070B50025064605603020FCF760FC044644
:10A8300098B10123C0E901330A4B0E3040F80E3CB9
:10A840004FF6FF7320F8023CFFF7E3FDC4E906551D
:10A85000C4E90855C4E90A55A57574600C3430463E
:10A86000346070BD6CFC3F0213B5044601A8FFF7CD
:10A870004DFD236801A81C884FF6FF73E41A18BF2A
:10A880000124FFF751FD204602B010BD37B50C463C
:10A89000054601A8FFF73AFD23682A6801A8C2F817
:10A8A00002306368C2F80630FFF73EFD03B030BDEA
:10A8B00037B50D46044601A8FFF728FD2A6801A810
:10A8C000D2F802302360D2F806306360FFF72CFD27
:10A8D000204603B030BD30B505460C4687B001A810
:10A8E000FFF714FD2A68236812881B889A420DD14D
:10A8F000294602A8FFF7DCFF214604A8FFF7D8FF8E
:10A9000004A902A8FFF771FD044600B9002401A8BC
:10A91000FFF70AFD204607B030BD000010B5044621
:10A920006420FCF7E4FB68B10023C0E90033C0E910
:10A930000233C0E90433C0E906330362C362C36370
:10A94000C364C365206020B90A200A4A0A49FDF79A
:10A950001FFD0020FDF73CFC20B10A20054A0749F5
:10A96000FDF716FD002221680548FDF7A1FC2046F1
:10A9700010BD00BFD58E3F0210FA3F024EFA3F02D3
:10A9800081BE3F0210B50A4CD4E88F3FDB070CD4E0
:10A990002046FCF7C3FB40B10648FFF7BFFF204647
:10A9A000FCF7C1FB044802F0BBF9024810BD00BF30
:10A9B000FCAE071004AF07107DB73F0230B5036847
:10A9C0000446093B012B0D468DB011D8FFF7DAFF85
:10A9D000A1880068FFF7A3FE034658B92022CDE9FD
:10A9E00004200B4A322000920A4904AAFDF7DEFC3B
:10A9F0000DB030BD6A6D002AFAD0D4E9032105F10B
:10AA00004C00CDE90312AC6D04AA03A9A047EFE7FF
:10AA100090FA3F0227FA3F0210B504464069FDF75D
:10AA200007FEA068FDF704FE204610BD002247F691
:10AA30007F71C0E90022C0E90222C0E90422C0E916
:10AA40000E22C0E91022C0E91222C0E91422C0E996
:10AA50001622C0E91822C0E91B2202620263A0F894
:10AA60006810704710B504460068FDF7E1FD204608
:10AA700010BD70B504462426C06DFDF7D9FD206DCC
:10AA8000FDF7D6FD04F1380504F14400FFF7EAFFB5
:10AA90002846FEF78DFD04F12800FCF70DFF04F1B8
:10AAA0001800FCF709FFD4E9005306FB0356AE4239
:10AAB00004D02846FFF7B0FF2435F8E72068FDF7FB
:10AAC000B7FD204670BD38B5141E0546436802DB4D
:10AAD00062189A4200DD5C1A2A68501801191A445B
:10AAE000521A02F04BF96A68121B6A6038BD0B6893
:10AAF000036013B15A6801325A60704710B50446BA
:10AB000051F8043B40F8043BFFF7F1FF23680BB911
:10AB1000FFF770FB204610BD10B5044651F8043B0A
:10AB200040F8043BFFF7E3FF204610BD10B5044694
:10AB300051F8043B40F8043BFFF7D9FF204610BD15
:10AB400010B504460430FEF711F9204610BD70B56B
:10AB50000446D0E9005305EBC306AE4204D0281DDD
:10AB6000FEF704F90835F8E72068FDF761FD204697
:10AB700070BD70B50446D0E9005305EBC306AE4284
:10AB800004D0281DFEF7F2F80835F8E72068FDF735
:10AB90004FFD204670BD10B504462430FFF7E9FF95
:10ABA00004F11800FFF7D3FF10BD000070B5174B7C
:10ABB0001C6854B304F15400FCF77EFE04F1440019
:10ABC000FCF77AFE04F13400FCF776FE04F1240071
:10ABD000FCF772FED4E9065305EBC306AE4204D07F
:10ABE000281DFEF7C3F80835F8E7A069FDF720FD3A
:10ABF00004F10C00FFF7BDFF2046FFF7A8FF204639
:10AC0000BDE870406421FCF776BA70BD04AF071050
:10AC1000826810B50AB901F06DFFC368BDE8104045
:10AC2000184700232DE9F047C0E900338360D1F8CD
:10AC30000480054698450F464ADD4FEA0810FDF7A7
:10AC4000E9FC0646002843D0D5E90041A04204EBC8
:10AC5000011A16D9504515D2AAF1100AA4F110090B
:10AC6000AAEB04040444D1451DD01CB15146204632
:10AC700001F010FC504601F091FBAAF1100A103CC3
:10AC8000F1E710D0B146A2450DD0B9F1000F03D0C5
:10AC90002146484601F0FEFB204601F07FFB1034C0
:10ACA00009F11009EFE72868FDF7C2FCC5F8088034
:10ACB0002E60D7E9004304EB0318A04506D02146D7
:10ACC000304601F001FC10341036F6E77B686B600B
:10ACD0002846BDE8F08730B58DB00C4600F138014C
:10ACE00001A8FFF79EFF029B002B2FDD04F114014A
:10ACF00004A8FFF7B5FC04F1080108A8FFF7B0FCB1
:10AD00000A9A069B13431FD0DDE9014504EB0515A4
:10AD1000AC4219D0204604A901F02CFC60B10124FA
:10AD200008A801F03BFB04A801F038FB01A8FEF7DE
:10AD30003FFC20460DB030BD204608A901F01AFCAA
:10AD400010340028E4D0EAE70024E9E70124EDE725
:10AD5000F8B50023C0E9003383604F6805469F4281
:10AD60000E4640DDF800FDF755FC0446D8B3D5E9A2
:10AD70000003844200EBC30310D99C420FD2083B6E
:10AD80001A1AA0F1080C22449C4518D01AB119686F
:10AD9000116059685160083B083AF5E70FD0014649
:10ADA00022468B420BD03AB1D1F800C0C2F800C0A5
:10ADB000D1F804C0C2F804C008310832F1E7FDF749
:10ADC00037FC2C60AF60D6E9003103EBC10098423C
:10ADD00008D01A68083444F8082C5A68083344F834
:10ADE000042CF4E769602846F8BD70B504460020DD
:10ADF000C4E90000A0604E680D46864212DD710075
:10AE0000FDF724FC70B12060A660D5E9003203EBA9
:10AE100042029A4204D033F8021B20F8021BF8E7E2
:10AE20006B686360204670BD10B50379044623B992
:10AE30000368186808B1FDF7FBFB204610BD10B58C
:10AE40000379044623B90368186808B1FDF7F0FBDD
:10AE5000204610BD2DE9F043D0F86C800F468FB02E
:10AE6000B8F1000F72D0056F002D6FD001F11409F9
:10AE70001F230022FF214846FFF7C0FBFF230837AE
:10AE80000446002219463846FFF7B8FBAC42064696
:10AE900006D0AE4230D0002420460FB0BDE8F0838B
:10AEA0002046FDF7B7FB03AB049300230446039051
:10AEB0008DF8143070B92023CDE90630244B254994
:10AEC000009306AA03463220FDF770FA04A8FFF7A4
:10AED000ABFFE1E70246FF212B464846FFF78EFB1A
:10AEE0002A464146039801F02CFF18B104A8FFF749
:10AEF0009BFFCEE70124E9E72846FDF78BFB002402
:10AF000003AB0646039004938DF8144078B92023D0
:10AF1000CDE906300E4B0F49009306AA03463220B6
:10AF2000FDF744FA344604A8FFF789FFB4E7024668
:10AF3000FF212B463846FFF761FB2A46414603981E
:10AF400001F0FFFE0028EED10124ECE70124A3E785
:10AF5000A8FA3F0227FA3F0238B50D1E04460068E2
:10AF600003DDFDF773FB18B938BDFDF761FB002069
:10AF70002060A5600120F7E708B583688B4202DAFC
:10AF8000FFF7EAFF08BD0120FCE738B50023C0E960
:10AF9000003383600D4649680446994210DDFFF78F
:10AFA000DBFF68B1D5E9003122681944994205D028
:10AFB0000AB11878107001330132F7E76B686360EB
:10AFC000204638BD38B504460D460B68083040F8B9
:10AFD000083C4B68083140F8043CFFF7D6FF05F108
:10AFE000140104F11400FFF7D0FF95F8203020463B
:10AFF00084F8203038BD1FB5044601A8FFF7C5FF0F
:10B00000019B029A2068236063686260039A02933E
:10B01000A368A26001900393FDF70AFB04B010BD82
:10B020002DE9F0410F4641681D46194483680446E6
:10B030009942904612DC266862683E443146D21B33
:10B04000701901F09BFE2A464146304601F089FE08
:10B05000012063682B446360BDE8F081FFF77CFF4B
:10B060000028E8D1F8E713460A46002110B5044647
:10B07000416002B10BB9002010BDFF2B28BFFF2398
:10B08000FFF7CEFF0028F7D06068F5E7F8B50D466A
:10B09000D0E901139942044616460BDA2768626824
:10B0A0007919521B481C01F069FE7E556368013313
:10B0B0006360F8BD0131FFF74FFF0028EED1F8E7DC
:10B0C0000A464168FFF7E2BF2DE9F74304461D46F3
:10B0D0000F4601AB90460A46D0E900019DF8289042
:10B0E000FFF772F8AE1C02466368B9F1000F26D173
:10B0F00028B333441B1AFF2B09D820460199FFF7C8
:10B10000E2FC616820463144FFF736FF18B96068F9
:10B1100003B0BDE8F0836A1C20460199D2B2FFF764
:10B12000B5FF01993A4601312046FFF7AFFF2B46A4
:10B130004246019902312046FFF772FFE7E7F11816
:10B14000FF29E4D82046FFF717FF0028DFD0691C4D
:10B150002046C9B2FFF7B4FF39462046FFF7B0FFDB
:10B160002B4642466168E6E730B49DF808501AB1B4
:10B17000029530BCFFF7A8BF406830BC70471FB5D0
:10B1800000230622C0E900338360009301230446B4
:10B190008DF80F2019460DF10F02FFF7E5FF20464D
:10B1A00004B010BD8842F8B504460D46164614D9C1
:10B1B000904213D2A2F10806751AA1F108072C4497
:10B1C000B74218D01CB131462046FFF7AFFC301D06
:10B1D000FDF7CCFD083E083CF2E70CD0B5420AD0A2
:10B1E0001CB129462046FFF7A1FC281DFDF7BEFD36
:10B1F00008350834F2E7F8BDF7B5044646686846F6
:10B20000FFF794FCD4E901739F4212DB0137002F52
:10B2100029DDF800FDF7FEF90546F0B1D4E900128A
:10B2200001EBC202FFF7BEFF2068FDF701FA2560BF
:10B23000A7602368626803EBC606314603EBC202CF
:10B2400006F10800FFF7AEFF1EB169463046FFF772
:10B250006DFC012563680133636001A8FDF786FD7D
:10B26000284603B0F0BD0025DEE7F8B50546D0E975
:10B2700000430F4604EBC306A64205D039462046DC
:10B28000FFF729FB08B114B9F8BD0834F4E7201D15
:10B29000FDF76CFDD5E90032204603EBC20204F154
:10B2A0000801FFF77FFF6B68013B6B60ECE7000074
:10B2B0002DE9F04105468EB003A80C46FFF726F8AD
:10B2C0002E68F31E0D2B3CD8DFE813F00E00530060
:10B2D0003B00D1003B003B003B003B003B009B00A0
:10B2E0009B009B009B009B0004A8FFF799FAAA898A
:10B2F000049B1A806968049808310230FFF768F8E7
:10B3000004A906A8FFF712FC06A904F11800FFF72C
:10B3100073FF054607A8FDF729FD20230693B5B95D
:10B320005D4B32205D49009306AA2B460795FDF739
:10B330003DF8049B29461888FCF774FF05A8FDF723
:10B3400015FD03A8FEF7F0FF0EB0BDE8F081002365
:10B35000534A01200092514906AA0793FDF726F8A7
:10B36000E36A002BEAD004A904F12400FFF750FCA3
:10B37000E4E72046A989FFF7D2F906460028E0D085
:10B380004FF6FF710568D5E90632298003EBC2024A
:10B390009A4203D053F8080B4180F9E7D5E90373CB
:10B3A00007EBC308B84504D0381DFDF7DFFC0837AC
:10B3B000F8E700232B61D5E9067307EBC308B8450E
:10B3C00004D0381DFDF7D2FC0837F8E70023EB6105
:10B3D000AB72E36B23B1314604F13400FFF718FC84
:10B3E00000232022CDE906232E4A012000922B497A
:10B3F00006AAFCF7DBFF314604F11800FFF735FF22
:10B400009FE72046A989FFF78AF9002899D0E36CC5
:10B41000002B96D000230D2EADF8163001D0102E43
:10B4200017D1002369681A4606258DF81530049156
:10B4300009AB8DF8142006908DF81C60DDE904013D
:10B44000089583E80300236D06A904F1440098479A
:10B4500077E70F2E01BF2B7A696803F001020825F8
:10B460001DBF1A4619461D46C3F34003DDE7A989EF
:10B470002046FFF754F9014600283FF462AFE36D20
:10B48000002B3FF45EAF6B6806AA069304F15400EC
:10B49000236E984755E700BFC3FA3F0227FA3F02E1
:10B4A000E9FA3F0206FB3F0238B50D1E044600686C
:10B4B00005DD14216943FDF7C9F818B938BDFDF75A
:10B4C000B7F800202060A5600120F7E72DE9F843D8
:10B4D0000024C0E900448460884649680746A142C8
:10B4E0001CDDFFF7E1FFC8B1D8E900934FF0140C61
:10B4F0000CFB039CD7F800E009EB0405AC450AD02F
:10B500001EEB04061EBF0FCD0FC62B6804F11404FA
:10B5100018BF3360F0E7D8F804307B603846BDE8E8
:10B52000F8832DE9F84345688368D1E90087E91974
:10B530009942044617DC142362685D4303FB07F954
:10B540005A432668521B2E44314606EB090001F08F
:10B5500015FC4A464146304601F003FC63683B4413
:10B560006360BDE8F883FFF79FFF0028E3D1F8E7A9
:10B5700082B070B50C4604A981E80C00D0E9011333
:10B580009942054617DA14236A6803FB04F15A430B
:10B590002C68521A0C442146E01804AE01F0EEFB70
:10B5A0000FCE0FC4336823606B6801336B60BDE856
:10B5B000704002B070470131FFF776FF0028E2D1FA
:10B5C000F5E72DE9F04F002405460F469046931EFF
:10B5D000C0E9004493B0DBB28460059379688C4283
:10B5E00072DA3868424607AB091B2044FEF7ECFDCF
:10B5F0000646002868D0059B012B2FD84FF0000984
:10B60000A0F1020B4FEA5B0B0DF13C0A079BCB4507
:10B61000234455D03A6803EB49031344D9789B7807
:10B6200008A843EA0121FEF750FF0DF1340C0DF19B
:10B63000200EBEE80F00ACE80F00DEF8003009F184
:10B640000109CCF800309AE807008DE807000DAB3F
:10B6500028460CCB6968FFF78BFFD7E7A8F10603F4
:10B66000012B2DD84FF00009A0F1020B4FEA1B1B54
:10B670000DF13C0ACB45079B22D0023339682344A5
:10B6800003EB09130122194408A8FEF7FFFE0DF190
:10B69000340C0DF1200EBEE80F00ACE80F00DEF810
:10B6A000003009F10109CCF800309AE807008DE874
:10B6B0000700DDE90D2328466968FFF759FFD9E740
:10B6C000079B1C44344489E7284613B0BDE8F08F3B
:10B6D000002330B504460D4685B0C0E900338360D1
:10B6E000022201A8FFF76DFF01A92046FFF719FF0D
:10B6F00001A8FFF7B7F90222294601A8FFF761FF69
:10B7000001A92046FFF70DFF01A8FFF7ABF90322BF
:10B71000294601A8FFF755FF01A92046FFF701FFC1
:10B7200001A8FFF79FF90622294601A8FFF749FF64
:10B7300001A92046FFF7F5FE01A8FFF793F90722BC
:10B74000294601A8FFF73DFF204601A9FFF7E9FEC2
:10B7500001A8FFF787F9204605B030BD2DE9F04F6D
:10B760008BB00C4600F1440101A8FFF7AFFE029B2D
:10B77000002B4ADD04F1140104A8FFF7A9FF04F12E
:10B78000080107A8FFF7A4FF059D089E002D01DC16
:10B79000002E38DD1423019A029F9246DDF81080B6
:10B7A000DDF81C9003FB072703FB058503FB0696CA
:10B7B000BA4528D0C346AB4515D059465046FEF78A
:10B7C0008EFE0BF1140B04460028F4D007A8FFF7F7
:10B7D00049F904A8FFF746F901A8FFF743F9204605
:10B7E0000BB0BDE8F08FCB46B34509D05946504663
:10B7F000FEF775FE0BF1140B04460028F4D0E5E7C4
:10B800000AF1140AD4E70024E0E70124E4E78842BF
:10B81000F8B504460D46164614D9904213D2A2F14B
:10B820000806751AA1F108072C44B74218D01CB1BC
:10B8300031462046FFF770F9301DFDF797FA083EB4
:10B84000083CF2E70CD0B5420AD01CB1294620468C
:10B85000FFF762F9281DFDF789FA08350834F2E789
:10B86000F8BD70B50E1E054611DDF000FCF7D2FEE6
:10B87000044658B1D5E9001201EBC202FFF7C7FF39
:10B880002868FCF7D5FE01202C60AE6070BD002456
:10B89000F6E700232DE9F041C0E9003383600D464F
:10B8A00049680446994213DDFFF7DBFF80B1D5E913
:10B8B0000063276806EBC308B04507D01FB13146C7
:10B8C0003846FFF729F908360837F5E76B686360F3
:10B8D0002046BDE8F08137B50D46044601A8FEF7C5
:10B8E00015FD296820460C31FFF7D3FF01A8FEF7AC
:10B8F0001BFD204603B030BD38B50B6805469B7A6A
:10B900000C4633B90846FEF795FC10B901222368AE
:10B910009A7228462146FFF7DEFF284638BD73B5E8
:10B92000044645686846FFF7F7F8D4E901139942E1
:10B9300010DA2368626803EBC505294603EBC202EF
:10B9400005F10800FFF763FF8DB963680126013335
:10B95000636006E020460131FFF783FF06460028BA
:10B96000E7D101A8FDF702FA304602B070BD694682
:10B970002846FFF7D1F8E8E72DE9F04F054688465D
:10B980000027DFF8B490DFF8B4A093B02B68BB4277
:10B990004ED91C2603A8FEF727FF0DF1140CE34631
:10B9A0007E436A68039C3244131D1432E6461868CD
:10B9B00059680833AEE803009342F446F6D118689C
:10B9C0005946CEF800000AA8FEF73EFD0DF1280CFE
:10B9D000BCE80F000FC4DCF80030039A23606B68EA
:10B9E00003A933441B8B93826B6833445B8BD382F4
:10B9F000D8F8000000F10C040AA8FFF78DF82046E3
:10BA00000AA9FFF78CFF04460BA8FDF7AFF954B95C
:10BA100020235146CDE90A3432202346CDF8009048
:10BA20000AAAFCF7C3FC04A8FDF7A0F90137ADE7AB
:10BA300013B0BDE8F08F00BF25FB3F0227FA3F029D
:10BA40008842F8B504460D46164614D9904213D2E2
:10BA5000A2F10806751AA1F108072C44B74218D0C4
:10BA60001CB131462046FFF749F8301DFDF77EF93D
:10BA7000083E083CF2E70CD0B5420AD01CB129467A
:10BA80002046FFF73BF8281DFDF770F9083508340C
:10BA9000F2E7F8BD70B50E1E054611DDF000FCF7AB
:10BAA000B9FD044658B1D5E9001201EBC202FFF717
:10BAB000C7FF2868FCF7BCFD01202C60AE6070BD9C
:10BAC0000024F6E700232DE9F041C0E9003383604C
:10BAD0000D4649680446994213DDFFF7DBFF80B14C
:10BAE000D5E90063276806EBC308B04507D01FB14E
:10BAF00031463846FFF702F808360837F5E76B6835
:10BB000063602046BDE8F08137B50D46044601A8C4
:10BB1000FEF7FCFB296820461831FFF7D3FF01A888
:10BB2000FEF702FC204603B030BD73B504464568FD
:10BB30006846FEF7E3FFD4E90113994210DA23685F
:10BB4000626803EBC505294603EBC20205F1080054
:10BB5000FFF776FF8DB9636801260133636006E065
:10BB600020460131FFF796FF06460028E7D101A8DD
:10BB7000FDF7FCF8304602B070BD69462846FEF776
:10BB8000BDFFE8E7F0B585B0054601A80C461746AD
:10BB9000FEF7BCFB0023C5E90033AB602368D3E9A3
:10BBA000064604EBC606B44211D021463868FEF7BB
:10BBB000A1FD50B1214602A8FEF7A0FF284602A928
:10BBC000FFF7B3FF03A8FDF7D1F80834EBE701A8AE
:10BBD000FEF7AAFB284605B0F0BD00002DE9F043B2
:10BBE0000B6806469B7A0F46904691B033B9C0E980
:10BBF00000338360304611B0BDE8F08311680D7EDC
:10BC0000002D58D120232A4603A8CDE90835FEF798
:10BC1000E5FC039B2B4901932B4B08AA01200093C1
:10BC20002B46FCF7C3FB03A800F0B8FB1C23ADF8C0
:10BC30002230D8F8003008A99A8AADF83820DB8A7B
:10BC4000224AADF83A303B6818880095FCF706FBAD
:10BC5000002830DB3B68D3E9064304EBC309083412
:10BC6000A4F10803994522D054F8083CDB89002B45
:10BC7000F5D0102200210DEB0200039501F098F899
:10BC800054F8083C03AAD9893B6818881323009507
:10BC9000FCF7F2FA0028E2D010AB184400F8345C4C
:10BCA00054F8080C03A93C3000F019FCD7E7012236
:10BCB000D8F800301A76424639463046FFF762FF20
:10BCC00098E700BF27FA3F024AFB3F0245CA3F02FE
:10BCD000F0B50B6806469B7A0D4685B02BB901A8D6
:10BCE000FFF70AFE01A8FEF732FF2B68D3E90347EE
:10BCF00004EBC707BC4209D02246294601A8FFF73A
:10BD00006DFF01A8FEF735FF0834F3E730462946FA
:10BD1000FFF7FAFE304605B0F0BD00002DE9F04314
:10BD20004FF0000993B005460F46086898464968E9
:10BD3000414B0AAC03C4049305AB83E803000792AC
:10BD4000CDE90899FEF71EFE3C4B0AAE0893FEF7BC
:10BD500019FE03684A46296804A80993FCF79AFA71
:10BD6000044638B14FF6FF722B681A80204613B094
:10BD7000BDE8F08339462846FEF788FD03A8FEF7A4
:10BD8000C5FAFEF7FFFD0768294618373046FEF76B
:10BD9000CDFE31463846FFF72FFA07460BA8FCF7D1
:10BDA000E5FF4FF020091FBB254B3246254E2649A3
:10BDB000322000932346CDE90A94FCF7F7FA306865
:10BDC000FCF7F8F92B688DF80C4021461888FCF731
:10BDD00029FA3068FCF7E0F901234FF6FF728DF87D
:10BDE0000C302B6803A81A80FEF79EFA174CBDE7AB
:10BDF00003A8FEF799FA164B32460093012023461A
:10BE00001149CDE90A94FCF7D1FAB8F1000FADD091
:10BE100029463046FFF75CFFDDE90A5305EBC3070F
:10BE2000BD4205D028460121FEF7A4FC0835F7E7FE
:10BE30003046FEF79EFE99E70300180081BE3F02E0
:10BE40007CFB3F0200AF071027FA3F02FCFEFFFF1A
:10BE500098FB3F0213B50446CDE90032FEF7E0FC43
:10BE600000222046009B0199FFF758FF204602B0B0
:10BE700010BD00002DE9F04F2023002695B0CDE93C
:10BE80000C36664B054600930F4633460120644945
:10BE90000CAAFCF78BFADFF88C91DFF88481DFF8CD
:10BEA00088A12B68B34240F2B5804FF02A0B03A85B
:10BEB0000BFB06FBFEF744FC05A8FEF795FC6B6840
:10BEC000039A5B44D98B1181198C5181598C9181D2
:10BED000988CD081D88C10821B8D5382D7E9033285
:10BEE00003EBC2029A427DD01868C48A8C4277D391
:10BEF000848A8C4274D85968059006A8FEF7E0F948
:10BF0000DDF80CE0DDF814C00EF12804BCE80F00E9
:10BF10000FC4DCF8003023602B89AEF802306B6868
:10BF2000039C5B445B7E13F0020F6ED16B685B4435
:10BF30005B7E580742BF237943F0040323716B688B
:10BF40005B445B7E190742BF237943F008032371EA
:10BF50006B685B445B7EDA0607AA964642BF23798C
:10BF600043F0100323716B685B445B7E9B0642BF0A
:10BF7000237943F0200323716B689B440BF1040386
:10BF80000BF1140B9446186859680833ACE80300A9
:10BF90005B456246F6D118687146CCF800000CA8E3
:10BFA000FEF752FA14340DF1300CBCE80F000FC448
:10BFB000DCF8003003A923600CA8FEF79FFD0CA954
:10BFC00007F11800FFF7B1FD04460DA8FCF7CEFEFF
:10BFD0009CB92023CDF800A0CDE90C34234607E01E
:10BFE00008337FE720240023CDE90C43CDF80090EF
:10BFF000414632200CAAFCF7D9F906A8FCF7B6FE98
:10C0000004A8FCF7B3FE01364BE7237943F00203A3
:10C0100023718BE715B0BDE8F08F00BFB5FB3F0281
:10C0200027FA3F02D0FB3F02FFFB3F028842F8B5F0
:10C0300004460D46164614D9904213D2A2F12406A6
:10C04000751AA1F124072C44B74218D01CB131460F
:10C050002046FEF7B7FF3046FEF7DEFC243E243CC8
:10C06000F2E70CD0B5420AD01CB129462046FEF7B3
:10C07000A9FF2846FEF7D0FC24352434F2E7F8BDAA
:10C08000F8B50E1E054613DD242707FB06F0FCF766
:10C09000C1FA044658B1D5E9001207FB0212FFF7B6
:10C0A000C5FF2868FCF7C4FA01202C60AE60F8BD1B
:10C0B0000024F6E700232DE9F041C0E90033836056
:10C0C0000F4649680546994229DDFFF7D9FF30B38D
:10C0D000D7E900434FF024082E6808FB03480834D2
:10C0E000A4F10802904518D0A6B154F8083C2146A6
:10C0F000336054F8043C06F108007360FEF745FF16
:10C1000004F10C0106F11400FEF73FFF94F918301A
:10C1100086F8203024362434E2E77B686B602846BA
:10C12000BDE8F08138B50C46054601F11800FEF770
:10C130006BF804F12800FEF772F80022214604484B
:10C14000FCF754F821462846FFF7B4FF284638BDCF
:10C1500045CD3F0210B504469EB001A8FEF766FC2F
:10C16000204601A9FFF7DEFF01A8FEF782FC20466A
:10C170001EB010BD2DE9F04306460C469DB001AD42
:10C180002846FEF746F903A8FEF7F9FF06A8FEF7D2
:10C19000F6FF3069716913AB03C3337885E8030098
:10C1A000F289B16806A88DF82430FEF75CFFB289E9
:10C1B000716803A8FEF757FF94F9683013AF7F2B1F
:10C1C00003D09DF924209A425CDB94F969307F2BDF
:10C1D00003D09DF924209A4254DC384604F15001E2
:10C1E000FEF7B6FD149B002B52DD139E06EBC30930
:10C1F000B14550D030462946FEF7F7F8083680465C
:10C200000028F5D01398FCF713FAB8F1000F39D0D5
:10C2100029462046FEF75FFDA0B329462046FFF7DA
:10C220009DFA064670B3384604F15C01FEF7DDFD69
:10C23000149B002B12DD06A8FEF730FA804603A8F7
:10C24000FEF72CFADDE9133203EB42029A4225D0C5
:10C2500033F8021B884501D08842F7D11398FCF7C8
:10C26000E7F97EB129462046FEF7F4FD50B1236A76
:10C27000B3B139466369139501336361636A04F1AD
:10C28000180098472846FEF7C7FB1DB0BDE8F083AD
:10C290004FF00108B6E74FF00008B3E70026DDE7EE
:10C2A000D4F83080B8F1000F07D063692946013314
:10C2B000636104F12800636BE3E7D4F80CC0BCF1C0
:10C2C000000F25D063692269013393426361D9D895
:10C2D000242253432A46243B0CEB030603CA4CF8A2
:10C2E0000300716006F1080003A9FEF784FE06A9A9
:10C2F00006F11400FEF77FFE9DF9243086F8203009
:10C30000D4E904329A42BDD34046FBF77DFFB9E73A
:10C310000DF1280895E8030088E8030003A90CA89C
:10C32000FEF733FE06A90FA8FEF72FFE9DF8243076
:10C33000414638468DF848306668FEF743FED4E93A
:10C340000113994210DA24222368616802FB063641
:10C3500002FB013206F124003146FFF767FE86B981
:10C3600063680133636005E020460131FFF788FE12
:10C370000028E8D13846FEF74FFB4046FEF74CFB5D
:10C3800080E739463046FEF71DFEE9E70023024804
:10C390000360FBF7E5BE00BF00AF071010B5044611
:10C3A0000068FCF745F9204610BD10B5044600684A
:10C3B00008B1FCF73DF90023C4E90133236010BD47
:10C3C00038B504460D4600680131FCF73FF910B15D
:10C3D000C4E90005012038BD10B50368044623B147
:10C3E00043688B4201D3012010BD2046FFF7E8FFD0
:10C3F0000028F9D0A368002BF5D122681370F2E76A
:10C4000037B50D46114601920446FFF7E5FF019A44
:10C4100028B92046FFF7C9FF204603B030BD2946A2
:10C42000A260206800F09DFC00212268A368D1541E
:10C43000F2E7002313B50446C0E9003383600373B9
:10C4400041B108460191FAF72DFE019902462046B6
:10C45000FFF7D6FF204602B010BD38B5054600688C
:10C460000C4668B16A688B689A4207D3096800F085
:10C47000ECFCA368AB600023A36038BDFCF7D8F8E0
:10C4800023682B6063686B60A368AB600023C4E91A
:10C490000033F1E7002310B50446C0E900338360A0
:10C4A0000373FFF7DAFF204610BD884210B504463B
:10C4B00005D00B682BB18A681946FFF7A1FF20460B
:10C4C00010BDFFF772FFFAE7002310B50446C0E97C
:10C4D000003383600373FFF7E8FF204610BD13B5F8
:10C4E000044659B108460191FAF7DCFD019902466C
:10C4F0002046FFF785FF204602B010BDFFF755FF2D
:10C50000F9E770B505460E4609B9002070BD6AB15D
:10C51000846814442146FFF75FFF0028F5D028689F
:10C52000AB683146184400F090FCAC600120EDE7A8
:10C53000002307B501228DF8041001A98DF80530FC
:10C54000FFF7DFFF03B05DF804FB02680B460968E4
:10C5500062B141B9806860B110787047986840B1A5
:10C560000978484270471046FAF792BD0029F5D184
:10C570000846704708B582688B689A4205D1FFF774
:10C58000E4FFB0FA80F0400908BD0020FCE700009D
:10C5900002220020044B1A60044B054AC3E9000044
:10C5A0009A60FBF7F1BF00BF14AF071008AF071088
:10C5B0000000FFFF002240681146FBF79FBF0022EA
:10C5C00040681146FBF7B6BF00224068FBF7A4BFE6
:10C5D0000022406881F00101FBF782BF0023406820
:10C5E0001A461946FBF76EBF002340681A461946E3
:10C5F000FBF75ABF002240681146FBF747BF0022F5
:10C6000040681146FBF726BF002202214068FBF775
:10C610002FBF002340681A46FBF70EBF0322024BD0
:10C620005A60024A1A60704718AF071088FC3F0230
:10C630007047000038B5142504462A46002100F052
:10C64000B7FB25804025074928462581258200F033
:10C650004FFA04496060284600F04AFAE06020463C
:10C6600038BD00BFEBFC3F027047704710B5044671
:10C67000FFF7E0FF204610BD10B50446FFF7DAFFD4
:10C68000204610BD10B50446FFF7D4FF204610BD6C
:10C6900030B50E4D87B0D5E88F1F11F0010411D1D0
:10C6A0002846FAF73BFD68B101A8FFF7DFFF2146F6
:10C6B00001AA0748FCF74CF92846FAF734FD05486B
:10C6C00000F02EFB024807B030BD00BF24AF0710BA
:10C6D00030AF071001D23F0210B50D4C86B0D4E840
:10C6E0008F3FDB0711D42046FAF718FD68B101A887
:10C6F000FFF7C2FF012101AA0648FCF729F92046ED
:10C70000FAF711FD044800F00BFB024806B010BD1B
:10C7100028AF071044AF07103BD23F0210B5FFF718
:10C72000DBFF074B044653B1FCF730F938B12368FF
:10C7300020461B699847002801DD00E000BF10BDBE
:10C740000000000010B50D4C86B0D4E88F3FDB0729
:10C7500011D42046FAF7E2FC68B101A8FFF792FF76
:10C76000022101AA0648FCF7F3F82046FAF7DBFCA1
:10C77000044800F0D5FA024806B010BD2CAF0710EF
:10C7800058AF071039D23F0210B5FFF7DBFF074B58
:10C79000044653B1FCF7FAF838B1236820461B6908
:10C7A0009847002801DD00E000BF10BD0000000038
:10C7B0004FF08042D2F8183223F0FE6343EA005073
:10C7C000C2F8180270470000012870B54FF080448D
:10C7D0004AD1D4F8A0309A0045D44FF09045D5F80E
:10C7E0000832022043F08053C5F80832D5F8803271
:10C7F000214E43F00303C5F88032B047D5F88032AC
:10C800004FF4C87043F00403C5F88032D4F8803088
:10C8100043F00043C4F88030B047D5F8643223F0C9
:10C820000053C5F86432D4F8803043F0C043C4F8F4
:10C830008030236823F480232360D4F8843043F0CD
:10C840000103C4F88430D4F8A0309B00FBD5D4F8A1
:10C85000803043F48073C4F88030D4F8803043F0E3
:10C860008003C4F8803070BDD4F8803023F0C0431A
:10C8700023F4C073F5E700BF49A910100023C0E9F5
:10C880000033C0E902337047436801290BBF23F42A
:10C89000803343F48033436043600BBF4368436895
:10C8A00043F4003323F400334360704743680129A5
:10C8B0000BBF23F0807343F08073436043600BBF72
:10C8C0004368436843F0007323F00073436070478C
:10C8D00038B50B6805460C4633B1023B012B03D932
:10C8E0003A211F4800F0E8FB6368032B06D9063B9A
:10C8F000012B03D93B211A4800F0DEFBA368012B72
:10C9000003D93C21164800F0D7FBE368032B03D979
:10C910003D21134800F0D0FB6B68002143F0010378
:10C920006B606B68284623F001036B600D4BEB6175
:10C930000D4B98470D4B9847D4E900136A681B02CA
:10C9400022F0405222F46C5243EA01331343A268AE
:10C9500043EAC223E26843EA02736B6038BD00BF5A
:10C96000DDFC3F027102108059D43F027DD43F02AA
:10C97000836801290BBF43F4002323F40023836061
:10C9800083600BBFC368C36823F4002343F4002310
:10C99000C36070472DE9F7431F46DDE90A560C23B3
:10C9A00058434B4B0C4653F80080D8F8049031B9EB
:10C9B0004FF4A7714748019200F07EFB019A394677
:10C9C0000C23454F0020B847FF2807467ED054224D
:10C9D0000021424B204698470B21216408F11001A9
:10C9E00000220223012021621321C9F30139B9F188
:10C9F000030FC4E90423A2642263E064636022702D
:10CA00006770E16244D1C4E90620E260A360268534
:10CA1000238DB3F5805F04D940F277112D4800F0E3
:10CA20004BFB22462E4B61782078656298472D4A51
:10CA30002F465369DB0322D5681C30D1711C30D1DD
:10CA40000023C2F88430BFF34F8F43F6E075D2F86D
:10CA50008030C3F3C900C3F34E335B01014603EAE0
:10CA6000050747EAC1760139C2F87462F9D2203B62
:10CA700013F1200FF2D1BFF34F8FBFF36F8F2078E8
:10CA800001226178184B9847012003B0BDE8F0837C
:10CA9000C4E90633E360A360B3082385B8E7EB0677
:10CAA00007D025F01F073544013D25F01F0520352F
:10CAB000EE1B3546BFF34F8F0A4A3744002DA7EBD4
:10CAC0000503D8DDC2F87032203DF7E70020DCE72F
:10CAD000BCFC3F02C8FC3F023DC41010A10E111067
