:02000004085F93
:1070000000705F08FCFF5F0800000600200005011B
:087010000401B41400000000AB
:107018000E480F4908B5884205D00E4A824202D070
:107028000D4B121A98470D480D4A00210D4B121AA4
:1070380098470D480D49884205D00D4A824202D032
:10704800054B121A9847014808BD00BF489E071013
:107058006CE65F08E8A007102D0D111000A90710B5
:1070680000B00710A10E1110188A3F0288705F083F
:0C707800FCFF3F0219705F0800000000E0
:087088007C705F0830DE3F025E
:1070900010F8012B11F8013B012A28BF9A42F7D0C2
:1070A000D01A7047034613F8012B002AFBD1181A97
:1070B0000138704770B501F0BFFF0025054E064C42
:1070C000A41BA408AC4200D170BD56F8043B9847FD
:1070D0000135F7E7D0FF3F02FCFF3F0200F0F2BBB3
:1070E00008B500F077FCBDE8084001F05DBF01F095
:1070F00079BA01F077BA01F083BA00000C2008B524
:10710000024A034901F02CF9FEE700BF659C3F02EB
:1071100040DE3F020078B0FA80F04009704701235A
:10712000037070470904064A41EA002040F001005C
:10713000044B10601168C90701D5013BFAD17047B3
:1071400000000140A0860100064A000240F0100045
:10715000106005481368D90602D50138FAD1704786
:10716000180C704700000140A08601002DE9F3478C
:1071700017464FF090421D468846D2F844331169B5
:1071800023F0FE0349014CBF43F0540343F0D00306
:1071900015F010040646C2F8443340EA001959D0ED
:1071A0004FF421611220FFF7BDFF4FF4216115203C
:1071B000FFF7B8FF1B20FFF7C7FF40F0070081B2C1
:1071C0001B20FFF7AFFF1B20FFF7BEFF40F01000B2
:1071D00081B21B20FFF7A6FF41F6BF711820FFF711
:1071E000A1FFFB20FFF7B0FF40F0020081B2FB20BF
:1071F000FFF798FF1120FFF7A7FF20F4005141F49B
:10720000805189B21120FFF78DFF1420FFF79CFFFA
:1072100020F4005141F4805189B21420FFF782FF1D
:107220001820FFF791FF6FEAC0406FEAD04081B2AB
:107230001820FFF777FF17211B20FFF773FF494640
:107240001720FFF76FFF8021102002B0BDE8F04744
:10725000FFF768BF0320FFF777FF20F4406141F498
:107260000061032089B2FFF75DFF15F0080A4AD0DC
:107270001820FFF769FF40F03F0081B21820FFF7A8
:1072800051FF2046FFF760FF00F4406040F4467174
:1072900041F003012046FFF745FF40F2FC71012059
:1072A000FFF740FF0220FFF74FFF00F4E05040F4EB
:1072B000014141F0EA010220FFF734FF10210C20C8
:1072C000FFF730FF49F6FC710120FFF72BFF02208A
:1072D000FFF73AFF00F4E05040F4014141F0FA01B9
:1072E0000220FFF71FFF2046FFF72EFF00F440604B
:1072F00040F4667141F003012046FFF713FF1821A7
:107300000C20FFF70FFF15F005042FD00220FFF728
:107310001BFF20F4C04141F40141022089B2FFF774
:1073200001FF052005F0A8F8EA077FD50C20FFF73C
:107330000BFF40F0100081B20C20FFF7F3FE02209B
:10734000FFF702FF40F4C06081B20220FFF7EAFEBF
:10735000642005F091F80320FFF7F6FE20F0F0011D
:1073600041F4687189B20320FFF7DCFE15F00D0FC0
:1073700002D0C82005F078F8BAF1000F20D0002024
:10738000FFF7E2FE00F4406040F4067141F00301B3
:107390000020FFF7C7FE40F2FC410120FFF7C2FECC
:1073A0000220FFF7D1FE00F4E05040F4014141F02B
:1073B000EA010220FFF7B6FE10210C20FFF7B2FE13
:1073C0006CB10020FFF7C0FE40F4606040F00100A7
:1073D00081B20020FFF7A6FE322005F04DF841F6FD
:1073E000BF711820FFF79EFE46F220311120FFF7F3
:1073F00099FE46F220311420FFF794FE64B3122068
:10740000FFF7A2FE04461520FFF79EFE24F4C76492
:1074100020F4C76AA4B21FFA8AFA092E0ED8DFE850
:1074200006F0BBC00DB60D0D0D0DBBC00320FFF760
:107430008BFE00F47F4040F4547194E744F0040163
:107440004AF0040A1220FFF76DFE15205146FFF79F
:1074500069FE322005F008F817211B20FFF762FEB5
:1074600049461720FFF75EFEFB20FFF76DFE20F078
:10747000060141F0080189B2FB20FFF753FEFD2011
:10748000FFF762FE20F0060141F0080189B2FD20FD
:10749000FFF748FE2720FFF757FE20F4807081B2E7
:1074A0000FB941F480712720FFF73CFEFA20FFF767
:1074B0004BFE20F400704005400D40F48051FA204E
:1074C0000191FFF72FFEFC200199FFF72BFEAB0780
:1074D00040D51120FFF738FE344C204040F4A04145
:1074E00041F0190189B21120FFF71CFE1220FFF7AD
:1074F0002BFE40F0040081B21220FFF713FE14208F
:10750000FFF722FE204040F4A04141F0180189B26B
:107510001420FFF707FE1520FFF716FE40F00400C9
:1075200081B21520FFF7FEFD1720FFF70DFE20F4B6
:10753000E06141F4807189B21720FFF7F3FD182054
:10754000FFF702FE6FEAC0406FEAD04081B2182018
:10755000FFF7E8FD26F00806012E13D11720FFF7EC
:10756000F3FD20F4F04141F4006189B21720FFF7E8
:10757000D9FD1B20FFF7E8FD20F00C0081B21B2095
:10758000FFF7D0FD47EA081141F080015CE644F0C6
:107590000C014AF00C0A55E744F014014AF0140AB1
:1075A00050E744F01C014AF01C0A4BE7FEDFFFFFE6
:1075B0000C21054A92F83D304B43D118D35C0BB9EE
:1075C000486870470020704700AA071038B50C4D76
:1075D0000A4695F83D4028B10C2303FB0453596833
:1075E00004F0A3FD0C23012263431444E4B2042CF1
:1075F000EA540ABF002385F83D4085F83D3038BD88
:1076000000AA0710094A92F83E1069B90C2092F8B6
:107610003C3058430133DBB2042B115402D082F8C2
:107620003C30704782F83C10704700BF00AA07103A
:107630000C21084B93F83C204A4399189A5C22B1DC
:107640000022486883F83E2070470122586B83F877
:107650003E20704700AA0710064B93F83E200AB15F
:10766000986B70470C2193F83C2001FB023398681B
:10767000704700BF00AA071037B5214B04465B696D
:10768000D8031AD5636A228DD9064FEA820208D040
:1076900023F01F01013B134423F01F0320335A1A28
:1076A0000B46BFF34F8F16481344002AA3EB020189
:1076B00021DCBFF34F8FBFF36F8F6178114B2078C0
:1076C0009847FFF79FFFFFF7B3FF0190FFF7C4FF55
:1076D0000546019A617820780B4B984761782078AD
:1076E000AA080A4B9847012261782078084B03B01A
:1076F000BDE830401847C0F85C12203AD5E700BF1B
:1077000000ED00E0A5BD1010B9C2101009C31010A3
:1077100091BF1010B0F5FA5FF7B51CD0B0F5FA4F75
:1077200014BF05250325374B0120B1FA81F4984792
:107730004FF0414101220846334FB84733490122F7
:107740000846B847EB1E6409042B07D8DFE803F0AE
:107750000506560658000725E5E70C26304604F0D6
:107760000BFA0223224628460021FFF7FFFC284D92
:1077700000212120A84700212220A847254D0C21C7
:107780002120A8470C212220A847234B234A01256A
:107790005A6380229A6300224FF4007020499A872E
:1077A00083F83E200132042AC3E901101D7001F55F
:1077B000007103F10C03F5D100261A4D1A4B28462F
:1077C0009847294619481A4BAC602E60984701210A
:1077D0001648184B98470121174B14489847FFF754
:1077E00027FF0446FFF738FF144ACDE90040114651
:1077F0003046134B134CA04703B0F0BD1826ADE73D
:107800003026ABE721D53F023900111000000840B7
:1078100099CF1010B9CF101000AA071080A9071037
:1078200000A1071054A90710D5D53F020008014058
:1078300029D63F02C9D63F0205D63F0200A907104C
:1078400009903F02EDD63F0208B5FFF7B1FE00B93F
:1078500008BD00210846FFF7B9FEF6E7FFF7A8BE0E
:10786000FFF7B4BE7047000010B50446094B036033
:1078700001F0B0FD214601F0F9FF01F0CBFA01F073
:10788000BBFA2046044B40F8043B01F08BFE204637
:1078900010BD00BF10E03F02F8DF3F0210B5044604
:1078A000FFF7E2FF20462421FFF725FC204610BD0C
:1078B00010B58368044613B1032201469847204659
:1078C00010BD000038B5002000F020FD43F69825DB
:1078D0000446002000F01AFD001B61F10001A842DF
:1078E00071F1000307D201F095FA01F088FA10B99E
:1078F00000F06EFDEDE701F08DFA01F080FA4FF433
:10790000FA6001F0D1FB284800F0C8F900F046FA0F
:1079100001210822C0E904124FF47A520368C260C0
:10792000DB689847014610B1204800F0B7F92048BD
:1079300000F0B4F900221F4B1F4800F0AFF94FF4DC
:107940007A511E4800F0AAF94FF47A711C4800F0F1
:10795000A5F909211B4800F0A1F94FF4FA4000F005
:1079600041FE194C2060B0B100234FF47A522371CC
:10797000C4E9023200F012FA03685B69984788B1E3
:10798000124800F08BF900F009FA03689B699847E8
:10799000206800F035FEBDE838404FF47A510C48BD
:1079A00000F07CB938BD00BF55DE3F028ADE3F02E1
:1079B000A2DE3F020000B03FB9DE3F02CEDE3F0252
:1079C000DFDE3F02F7DE3F0240AA07100CDF3F0276
:1079D00021DF3F022DE9F04F3A488FB000F05EF909
:1079E00002F0EAFD014607A803F0AAFD0899002964
:1079F0004FD0354800F052F900252427DFF8CC801D
:107A0000DFF8CC90089B9D4243DA07FB05F407980A
:107A10000021204402F0DEFB0646079801212044A5
:107A200002F0D8FB059007980221204402F0D2FB17
:107A3000049007980321204402F0CCFB824607986B
:107A40000421204402F0C6FB834607980521204408
:107A500002F0C0FBDDE904320799214491F92010BE
:107A6000CDE900ABCDE902013146404600F016F900
:107A700007990AA82144083102F0CEFC0C9B1BB1E7
:107A800048460A9900F00AF90AA803F07DFE01357C
:107A9000B8E7242540F6B83001F006FBDDE90743DE
:107AA00005FB0345A54207D0606900F0A9FDA06869
:107AB00000F0A6FD2434F5E7079800F0A1FD0FB013
:107AC000BDE8F08F88DF3F0295DF3F02A7DF3F026E
:107AD000D8DF3F0270B51426D0E90053044606FBF8
:107AE0000356AE4204D0284603F04EFE1435F8E7A4
:107AF000206800F085FD204670BD8842F8B5044638
:107B00000D46164616D9904215D2A2F11406751AE2
:107B1000A1F114072C44B7421CD02CB131462046A9
:107B200003F0AEFE337C2374304603F02DFE143E8A
:107B3000143CF0E70ED0B5420CD02CB129462046BB
:107B400003F09EFE2B7C2374284603F01DFE1435A3
:107B50001434F0E7F8BD00232DE9F041C0E900330B
:107B600083604F6804469F420E4624DD4FF01408A0
:107B700008FB07F000F036FD0546E0B1D4E900123D
:107B800008FB0212FFF7B9FF206800F039FD2560FD
:107B9000A760D6E9007308FB0378B84509D03946D9
:107BA000284603F087FE3B7C143505F8043C143767
:107BB000F3E7736863602046BDE8F08170B500218B
:107BC0008CB0012000F0E4FC0023CDE900330293E7
:107BD00001F020F91A4C05462646694603A8FFF72E
:107BE000BAFF03A906A8FFF7B6FF164B06A946F889
:107BF000043B09A8FFF7AFFF09AA3221304601F084
:107C000017FF09A8FFF766FF06A8FFF763FF0E4BF3
:107C100003A823602562FFF75DFF0C4B236001F092
:107C2000F9F84FF4165101F0E3F801F0D3FB2146C7
:107C300001F0D6FD6846FFF74DFF0CB070BD00BFE8
:107C400050AA0710F8DF3F0228FB3F0210E03F0276
:107C5000104B1A68104B02F578615960C3F83C115B
:107C600002F54871C3F86C11C3F89C11C3F8CC112C
:107C700002F5C871C3F82421C3F85421C3F8842144
:107C8000C3F8B421C3F8E421C3F8FC11C3F81422EB
:107C9000704700BF74AA07104C9E07100FB413B5AD
:107CA00004AB53F8042B4FF480610B48019300F0B0
:107CB000C3FC00280BDD01F0ADF804460648FFF7D1
:107CC000F1F923680246DB6820460349984702B071
:107CD000BDE8104004B0704778AA07100120704733
:107CE0006FF0770070476FF07700704700F0C2B810
:107CF00000F0D4B800F0B3B800F0D8B800F0DFB8A6
:107D000010B50446024B036000F0A8F8204610BDF1
:107D1000F4F83F0210B50446FFF7F2FF2046202199
:107D2000FFF7E9F9204610BD10B50446024B036089
:107D3000FFF7E6FF204610BD24F93F0210B50446C8
:107D4000FFF7F2FF20462421FFF7D5F9204610BDAA
:107D5000002330B585B002938B6805460C4633B1DD
:107D6000022268469847E3680393A3680293694632
:107D7000284600F0BBF804466846FFF799FD204608
:107D800005B030BD10B5044600F0D6F8024B2046D1
:107D900023600023236210BD24F93F0238B5064D4D
:107DA0002B683BB92420FFF7A2F9044608B1FFF77E
:107DB000E9FF2C60286838BD78AE0710F8B5074693
:107DC000036886699B680C46154601EB4606984792
:107DD0003B69C3B901226FF07F017B6940009A4083
:107DE00012B2B44236D2B4F90030044493FBF2F339
:107DF0001BB27F2BA8BF7F238B42B8BF0B46803BB3
:107E000005F8013BEDE7012B17D17A6948F26407C9
:107E10001149C2F108024000B4421BD2B4F900304B
:107E2000044493408B4206DBB3F5004FC8BF3B468A
:107E300025F8023BF0E7084BFAE7AC4201D10128F4
:107E400008D04000B44205D2B4F90030044425F80B
:107E5000023BF7E7F8BD00BF0180FFFF704700233A
:107E600003771846704710B504462021FFF743F901
:107E7000204610BD08B5C368B3F57A5F08D0B3F5E6
:107E8000FA4F05D0B3F5FA5F1CBF4FF47A53C360C5
:107E9000017AC068FFF73EFC002008BD10B504461B
:107EA000FFF7D2FC01230020237710BD08B5007F27
:107EB00020B1FFF7D3FC003818BF012008BD37B54B
:107EC000057F04461DB90025284603B030BD019149
:107ED000FFF7C4FC01460028F5D02046019AFFF7C1
:107EE0006DFF00210846FFF7BBFCEDE7F7B5077F04
:107EF00006460D461FB90027384603B0F0BDFFF710
:107F0000ADFC04460028F6D0024601463046FFF795
:107F100055FF4FF480730193AB6800940BB903F0E5
:107F2000CDFF69462846EB6801AA9847002108461C
:107F3000FFF796FCE0E700004FF0010C0421064A31
:107F4000C0E904C14FF4807142600022816103499D
:107F500002720160027770470B000C0054F93F0277
:107F600000230248036000F01BB900BF7CAE07107D
:107F700009B504480068044B03441B681B6802935E
:107F800009BD0000489E07103400000009B50448F0
:107F90000068044B03441B685B68029309BD000042
:107FA000489E07103400000009B504480068044BDF
:107FB00003441B689B68029309BD0000489E07109C
:107FC0003400000009B504480068044B03441B68F2
:107FD0001B69029309BD0000489E07103400000091
:107FE00009B504480068044B03441B685B690293AD
:107FF00009BD0000489E07103400000009B5044880
:108000000068044B03441B689B69029309BD000090
:10801000489E07103400000009B504480068044B6E
:1080200003441B68DB69029309BD0000489E0710EA
:108030003400000009B504480068044B03441B6881
:108040001B6A029309BD0000489E0710340000001F
:1080500009B504480068044B03441B689B6A0293FB
:1080600009BD0000489E07103400000009B504480F
:108070000068044B03441B689B68029309BD000021
:10808000489E07102400000009B504480068044B0E
:1080900003441B68DB68029309BD0000489E07107B
:1080A0002400000009B504480068044B03441B6821
:1080B0001B69029309BD0000489E071024000000C0
:1080C00009B504480068044B03441B685B690293CC
:1080D00009BD0000489E07102400000009B50448AF
:1080E0000068044B03441B689B69029309BD0000B0
:1080F000489E07102400000009B504480068044B9E
:1081000003441B68DB69029309BD0000489E071009
:108110002400000009B504480068044B03441B68B0
:108120001B6A029309BD0000489E0710240000004E
:1081300009B504480068044B03441B689B6A02931A
:1081400009BD0000489E07102400000009B504483E
:108150000068044B03441B68DB6A029309BD0000FE
:10816000489E07102400000009B504480068044B2D
:1081700003441B681B6C029309BD0000489E071056
:108180002400000009B504480068044B03441B6840
:108190005B69029309BD0000489E07104C00000077
:1081A00009B504480068044B03441B681B6B029329
:1081B00009BD0000489E07103000000009B50448C2
:1081C0000068044B03441B685B6C029309BD00000C
:1081D000489E07103000000009B504480068044BB1
:1081E00003441B689B6C029309BD0000489E071066
:1081F0003000000009B504480068044B03441B68C4
:10820000DB6C029309BD0000489E0710300000009F
:1082100009B504480068044B03441B685B6D029376
:1082200009BD0000489E07103000000009B5044851
:108230000068044B03441B689B68029309BD00005F
:10824000489E07106000000009B504480068044B10
:1082500003441B68DB6F029309BD0000489E0710B2
:108260006000000009B504480068044B03441B6823
:10827000D3F88430029309BD489E071060000000C7
:1082800009B504480068044B03441B68D3F89830D0
:10829000029309BD489E07106000000009B504481C
:1082A0000068044B03441B68D3F8F030029309BD07
:1082B000489E07106000000009B504480068044BA0
:1082C00003441B685B68029309BD0000489E0710C9
:1082D0000000000009B504480068044B03441B6813
:1082E000DB68029309BD0000489E071000000000F3
:1082F00009B504480068044B03441B685B6902939A
:1083000009BD0000489E07100000000009B50448A0
:108310000068044B03441B68DB6D029309BD000039
:10832000489E07100000000009B504480068044B8F
:1083300003441B689B68029309BD0000489E071018
:108340005000000009B504480068044B03441B6852
:10835000DB68029309BD0000489E07105000000032
:1083600009B504480068044B03441B685B6B029327
:1083700009BD0000489E07104800000009B50448E8
:108380000068044B03441B681B6D029309BD000089
:10839000489E07104800000009B504480068044BD7
:1083A00003441B68DB6E029309BD0000489E071062
:1083B0004800000009B504480068044B03441B68EA
:1083C0001B6F029309BD0000489E07104800000083
:1083D00009B504480068044B03441B689B6802937A
:1083E00009BD0000489E07102C00000009B5044894
:1083F0000068044B03441B68DB6B029309BD00005B
:10840000489E07102C00000009B504480068044B82
:1084100003441B685B68029309BD0000489E071077
:108420002800000009B504480068044B03441B6899
:108430009B68029309BD0000489E071028000000B9
:1084400009B504480068044B03441B68DB680293C9
:1084500009BD0000489E07102800000009B5044827
:108460000068044B03441B681B69029309BD0000AC
:10847000489E07102800000009B504480068044B16
:1084800003441B685B69029309BD0000489E071006
:108490002800000009B504480068044B03441B6829
:1084A0009B69029309BD0000489E07102800000048
:1084B00009B504480068044B03441B68DB69029358
:1084C00009BD0000489E07102800000009B50448B7
:1084D0000068044B03441B681B6A029309BD00003B
:1084E000489E07102800000009B504480068044BA6
:1084F00003441B681B6B029309BD0000489E0710D4
:108500002800000009B504480068044B03441B68B8
:108510005B6B029309BD0000489E07102800000015
:1085200009B504480068044B03441B681B6C0293A4
:1085300009BD0000489E07102800000009B5044846
:108540000068044B03441B685B6C029309BD000088
:10855000489E07102800000009B504480068044B35
:1085600003441B685B68029309BD0000489E071026
:108570000800000009B504480068044B03441B6868
:108580005B69029309BD0000489E071008000000C7
:1085900009B504480068044B03441B68DB6A029376
:1085A00009BD0000489E07100800000009B50448F6
:1085B0000068044B03441B68D3F88830029309BD5C
:1085C000489E07100800000009B504480068044BE5
:1085D00003441B68D3F89430029309BD489E0710EA
:1085E0000800000009B504480068044B03441B68F8
:1085F0001B68029309BD0000489E0710040000009C
:1086000009B504480068044B03441B685B68029387
:1086100009BD0000489E07100400000009B5044889
:108620000068044B03441B689B68029309BD00006B
:10863000489E07100400000009B504480068044B78
:1086400003441B685B6A029309BD0000489E071043
:108650000400000009B504480068044B03441B688B
:10866000DB6A029309BD0000489E07100400000069
:1086700009B504480068044B03441B68DB6B029394
:1086800009BD0000489E07100400000009B5044819
:108690000068044B03441B681B6C029309BD000077
:1086A000489E07100400000009B504480068044B08
:1086B00003441B685B6C029309BD0000489E0710D1
:1086C00004000000002340681A46FFF79DBE002208
:1086D00002214068FFF7B4BE002240681146FFF750
:1086E000A1BE002240681146FFF7B8BE00234068D3
:1086F0001A461946FFF7C0BE002340681A461946BD
:10870000FFF7C8BE00214068FFF70ABF002140689C
:10871000FFF714BF0022406881F00101FFF7C8BED7
:1087200000224068FFF7E0BE002240681146FFF7D4
:10873000E9BE002240681146FFF7C8BE2DE9F043AC
:1087400095B014460D46074600F0C2FB00211C22DE
:108750000DA8009103F010FD402320460C9300214A
:108760006B460CAAFFF7EEFD044600284BD10246EB
:1087700001216868FFF772FE022180462246686880
:10878000FFF76CFE21468146009E002E3BD000295B
:1087900039D17368022B03D00A2B11D0F669F4E7A4
:1087A000B8F1000FFAD0716906A804313C1D07AD7D
:1087B00000F0BCFB0FCD0FC42B6841462370EDE7E2
:1087C000B9F1000FEAD0102201A8746903F0D4FCBB
:1087D000062301AD8DF8143004F1080318342A463D
:1087E00018685968083303C2A3421546F7D101A996
:1087F00006A83C1D07AD00F079FB0FCD0FC42B6818
:1088000049462370CAE70098FFF78EFD384615B039
:10881000BDE8F083024B034A1A6000225A60704799
:1088200080AE071084F93F02002240681146FFF72E
:1088300015BE002240681146FFF748BE002240687E
:108840001146FFF75FBE00224068FFF74DBE0022D1
:10885000406881F00101FFF72BBE002340681A46F3
:108860001946FFF717BE002340681A461946FFF75E
:1088700003BE002240681146FFF7D4BD002202214A
:108880004068FFF7DDBD002340681A46FFF7BCBD16
:108890000422024B5A60024A1A60704788AE0710E1
:1088A000C0F93F0270474174704708B5007CFFF77C
:1088B0003FFC20EAE07008BD08B5007CFFF7F2FB42
:1088C00020EAE07008BD08B5007CFFF707FC40EA2D
:1088D000E07008BD08B5007CFFF7F2FB40EAE070ED
:1088E00008BD007CFFF708BC37B5457C04462DB1B8
:1088F000207C03B0BDE83040FFF7C6BB007C01918F
:10890000FFF716FC00280199F2DC284603B030BDC1
:1089100010B504461421FEF7EEFB204610BD000002
:1089200010B54FF47A730446084611460022C4E994
:108930000123044B2074236001236374FFF714FCAC
:10894000204610BD04FA3F020023007CFFF7FEBB67
:108950000022FFF7F9BF007CFFF788BB007CFFF720
:10896000D9BB012200F1100313F8101C184601298D
:1089700008D153F8041C02EB4102013A03F1100341
:10898000F2D17047022904BF53F8041C5218F4E7CF
:108990000EB4F0B588B0102100AF07F1340555F8DA
:1089A000042B04462B4678187A60FD60FFF744FEDE
:1089B0000F287A681AD900F1080323F007036E46DE
:1089C000ADEB030D411C2B466846FD60FFF734FEFE
:1089D000021E04DD2368694620469B689847B54619
:1089E0002037BD46BDE8F04003B070470028F7D0FF
:1089F000236802469B68204607F110019847EFE77D
:108A000010B543680446013B436063B903689B6843
:108A10009847A368013BA3602BB923682046BDE8B3
:108A20001040DB68184710BD38B50B68044603607A
:108A30004D6843689D4208D015B16B6801336B6087
:108A4000606808B1FFF7DCFF656038BD07B50368F3
:108A50008DF8071001229B680DF10701984703B0BC
:108A60005DF804FB0B461146002210B50446C0E930
:108A7000002283600BB9204610BDFFF7D5FFFAE74F
:108A80008368EBB11A78032A1AD8DFE802F00417DA
:108A9000021B0520704702685B685268D05C2D2875
:108AA00012D0A0F13003092B0ED974280ED06628FD
:108AB0000CD0A0F16E035842584170470620704711
:108AC0000020704704207047032070470220704741
:108AD00010B50446FFF7D4FF02280ED0C31EDBB248
:108AE000012B14D82268A36850685B680A22BDE88D
:108AF00010400021184403F03FBC2268A36852686C
:108B00005B68D05CA0F174035842584110BD00204E
:108B1000FCE7000038B500230446C0E900330E48E6
:108B2000C4E90203A9B10B78032B06D08BB91368F3
:108B300058684B68C35C6E2B07D013684D68586843
:108B40008B6828445B1BA060E36011462046FFF75A
:108B50006BFF204638BD00BF87DF3F0238B50025D8
:108B60000B4604461146C0E90055C0E90255C0E96C
:108B700004554BB11A78012A06D103F11002DB68C3
:108B800082604361FFF750FF204638BD10B543694E
:108B9000044663B18068013BE0601030A060206152
:108BA000636113B1FFF7DDFEA060012000E018460D
:108BB00010BD10B57D210446FFF748FF0123204674
:108BC000237110BD08B50379012B02D0022B04D00C
:108BD00008BD2C21FFF73AFFFAE73A21FAE710B572
:108BE0000446FFF7EFFF20467B21FFF72FFF00230E
:108BF0002046237110BD000013B504460191FFF714
:108C0000E1FF23682046DB68019A03499847012366
:108C10002046237102B010BD9FDE3F0213B504460B
:108C20000191FFF7CFFF23682046DB68019A0349D3
:108C3000984701232046237102B010BD2CFA3F0251
:108C40002DE9F0470D469046222104462F46FFF7B6
:108C5000FDFEDFF8A490A8444745BA463DD017F87A
:108C6000016B222E06D05C2E04D0304603F042FA6F
:108C70000028F1D12368294620469B68AAEB05020B
:108C800098475C212046FFF7E1FE0D2E0AD8072EFB
:108C90001CD9A6F10803052B18D8DFE803F00D0F47
:108CA00011171315222E01D05C2E0FD1314620460C
:108CB000FFF7CCFE3D46CFE76221F8E77421F6E7E7
:108CC0006E21F4E76621F2E77221F0E7236832466D
:108CD00049462046DB689847ECE7BD4205D023684B
:108CE000294620469B687A1B984722212046FFF799
:108CF000ADFEBDE8F08700BF2FFA3F0213B5044672
:108D0000CDE90021FFF75EFFDDE900212046FFF7F6
:108D100097FF02232046237102B010BD13B504460D
:108D2000CDE90021FFF74EFFDDE900212046FFF7E6
:108D300087FF01232046237102B010BD10B5044601
:108D4000006808B1FFF75CFE204610BD4174704713
:108D50007047704708B50021007CFFF74FF940EAE3
:108D6000E07008BD08B50121007CFFF747F940EA33
:108D7000E07008BD08B5007CFFF732F920EAE0702A
:108D800008BD08B5007CFFF71DF920EAE07008BDBA
:108D900013B50446007C0191FFF722F900280199E0
:108DA00001DC607C20B1207CFFF736F920EAE0701E
:108DB00002B010BD007CFFF73DB910B50446142188
:108DC000FEF799F9204610BD10B54FF47A730446AA
:108DD00008460021C4E90113044B207423600123D9
:108DE00011466374FFF7C4F8204610BD40FA3F02F5
:108DF0000022007CFFF7CAB8007CFFF7D5B8007CE2
:108E0000FFF726B910B504461422002103F0B4F987
:108E1000204610BD10B588B003A8FFF7F3FF0C4C37
:108E2000D4E88F1F11F001010FD120460191FEF708
:108E300071F9019948B103AA0648FFF7C5FF20461A
:108E4000FEF76DF9044803F04FF9024808B010BD71
:108E500090AE071094AE0710E1A63F02704710B520
:108E600004461821FEF747F9204610BDF0B5037DF2
:108E70000E46062B4FF000048DB000F1040712D00F
:108E800000F1080515F8011D0A22304601F013F91A
:108E9000AF42044419D0002CF4D02E21304601F00A
:108EA00007F90444EEE72F236A4639460A208DF875
:108EB0000040FFF767F96846FEF7F4F833680246AA
:108EC00069463046DB689847044620460DB0F0BD41
:108ED00010B50446044B1122002140F8043B03F076
:108EE0004BF9204610BD00BF70FA3F020346074A07
:108EF00010B543F8042B01F1100251F8044B9142D4
:108F000043F8044BF9D10A781A7010BD70FA3F0289
:108F100010B59DF8084044EA032343EA02420423C3
:108F200042EA01614160037510BD000007B5064BC0
:108F30000360CB7800938B784A780978FFF7E8FFD5
:108F400003B05DF804FB00BF70FA3F02014B1860EC
:108F5000704700BF80A0071008B50F4B43B1FFF763
:108F600059FF03681B699847002801DD00E000BF36
:108F70000A4B43B102F070FD03681B699847002853
:108F800001DD00E000BF064B0BB102F0ABFD054B6D
:108F90000BB102F0DDFD08BD000000000000000084
:108FA000000000000000000008B5FFF7D5FFFFF744
:108FB0009FF9014B186008BD20AF07100548064A0D
:108FC00008B5121A054903F0B0F8054B054A1A60B6
:108FD00008BD00BF00B4071004B407100CF15F080F
:108FE00000B407101E1C279A002307B51A466FF01D
:108FF00077010093FFF7E8FA03B05DF804FB000087
:1090000007B543880A2B08D0502B0BD1094B1B689E
:109010004BB103B05DF804EB1847FFF7E5FF03B071
:109020005DF804FB00231A466FF077010093FFF709
:10903000CBFAF4E7ACAE0710002110B51148FFF7EA
:1090400033FB114B1A68114B9A420CBF01220022CC
:109050000F4B1A7001D0FFF7B1FFFFF72DF904464F
:1090600003F092F80B4B13B1204600E000BF002143
:109070000848FFF7BBF9BDE8104000210648FFF79C
:1090800095BA00BFDDA83F0200B407101E1C279A46
:10909000A8AE07100000000091A93F020022014B7A
:1090A0009A607047B0AE07100021FFF763BA000066
:1090B000024B1A68024B1A60704700BF74A0071079
:1090C000C0AE071080680368DB6818477047084621
:1090D00011B10B685B68184770477047704770475D
:1090E000704738B504460D4600682E2103F087F816
:1090F0002368C31A2B6023B1037803B101302368BE
:109100002060184638BD10B504460C21FDF7F3FF6A
:10911000204610BD10B504460421FDF7ECFF2046A3
:1091200010BD10B504460421FDF7E5FF204610BD33
:10913000FFF760B808B5FDF7ABFFB0FA80F0400963
:1091400008BD704710B50C46FFF764FE844205D198
:10915000FFF760FEBDE81040FFF74EBE02F07CFC5A
:10916000844205D102F078FCBDE81040FFF7F3BB64
:109170002CB123682046BDE810405B68184710BD3D
:109180000B6803604B68436013B15A6801325A6040
:10919000704713B5044608460191FDF783FF024668
:1091A0002046019902B0BDE81040FFF7B7BD13B5E6
:1091B000044608460191FDF775FF024620462368E4
:1091C0000199DB6802B0BDE81040184707B5036895
:1091D0008DF807100122DB680DF10701984703B0F5
:1091E0005DF804FB0A6810B502604A68426000221C
:1091F000C0E9022202618C688A608460CC68CA601F
:10920000C4600C690A61046110BD00002DE9F74FCC
:109210004FF0140AD0E90084174645460AFB04F4CF
:109220000093174BA4105C43002C21DD66100AFB51
:1092300006F005EB0009B9F804B03A465F4528BFCF
:109240005A462858019102F0ECFF00284FF0010324
:1092500001990BD15F4503D1009A13703446E3E7BF
:10926000FCD9A61B09F11405013EF7E7F9DBF5E788
:10927000A5EB08050248AD10684303B0BDE8F08FC8
:10928000CDCCCCCC7FB50369057E019103B3F9B198
:10929000002600F10C04039603A901A8FFF721FFA3
:1092A0000146A8B10DF10B032046039A8DF80B601F
:1092B000FFF7ACFF9DF80B3053B12368142404FB77
:1092C0000034B4F906300834002BA8BFDDB2E3E760
:1092D000284604B070BD0EB4F0B58CB000AF07F1F5
:1092E000440555F8042B04462B46202107F11000B5
:1092F0007A60FD60FFF7A0F91F287A681AD900F19B
:10930000080323F007036E46ADEB030D411C2B460B
:109310006846FD60FFF790F9021E04DD2368694688
:109320002046DB689847B5463037BD46BDE8F0407B
:1093300003B070470028F7D023680246DB68204658
:1093400007F110019847EFE710B5084CD4E88F3FBC
:10935000DB0709D42046FDF7DDFE28B12046FDF7E6
:10936000DEFE034802F0C0FE024810BDC8AE071082
:109370006BAA3F0278A0071010B5084CD4E88F3FC5
:10938000DB0709D42046FDF7C5FE28B12046FDF7CE
:10939000C6FE034802F0A8FE024810BDCCAE07107E
:1093A000D3AA3F027CA0071038B500250446C0E9C7
:1093B0000055C0E904558560856140F8245FFEF7DB
:1093C000FDFEFFF7C1FFE061FFF7D6FF25732062C6
:1093D000204638BD10B50A4CD4E88F3FDB070CD4CB
:1093E0002046FDF797FE40B10648FFF7DDFF204617
:1093F000FDF795FE044802F077FE024810BD00BF5D
:10940000C4AE0710D4AE0710D9B23F020023024AFF
:1094100002490348FEF7CEBFC1B03F024DB03F0244
:10942000CDAF3F0200231A4619461846FEF7C2BFC9
:1094300037B504468D686846FFF7A2FE6A4629469E
:109440002046FFF78BFB01A8FFF778FC204603B00E
:1094500030BD37B50446CD686846FFF791FE6A46D1
:1094600029462046FFF756FB01A8FFF767FC204678
:1094700003B030BD37B504460D696846FFF780FE7E
:109480006A4629462046FFF7EDFA01A8FFF756FC89
:10949000204603B030BD000070B58AB00D460146CD
:1094A00004A8FFF7C5FF144E04A8FFF76FFBE8B14F
:1094B000684604A9FFF7CDFF31460298FFF73AFE50
:1094C000044610B12C1E18BF012401A8FFF736FC7A
:1094D000002CE9D0684604A9FFF7CCFF6846FFF7E7
:1094E000F7FA286001A8FFF729FCDDE705A8FFF7D8
:1094F00025FC0AB070BD00BF98FA3F0237B50C4694
:10950000134920461546FDF7C3FD50B9FFF782FC0D
:109510004FF41651FFF76CFC03B0BDE83040FFF785
:1095200079BC20460B49FDF7B3FD78B94FF41653CB
:1095300001A928460193FFF7AFFF02F08DFA0199C8
:10954000FFF706FA02F088FA03B030BD0020FBE70F
:109550009DFA3F02A4FA3F0270B51426D0E90053E9
:10956000044606FB0356AE4205D005F10800FFF79E
:10957000F3FF1435F7E72068FFF742F8204670BD87
:1095800070B50446D0E9005305EB0316AE4204D093
:10959000284602F0F9F81035F8E72068FFF730F8B0
:1095A000204670BD10B504460C30FFF7D5FF2046AD
:1095B000FFF7E6FF204610BD10B50446034B40F808
:1095C000043BFFF7EFFF204610BD00BFF8DF3F026E
:1095D00010B50446FFF7F0FF20462421FDF78BFD70
:1095E000204610BD10B50446024B0360FFF7E4FFB0
:1095F000204610BD40FB3F0210B50446FFF7F2FFC6
:1096000020462421FDF777FD204610BD0022C0E949
:109610000022826010B50C680A6004604C684A60E1
:1096200044608C688A60846010BD10B5044603688D
:109630001868FEF7EDFD204610BD00002DE9F04F43
:1096400087B003931C4B80465B688946C3F30803CD
:1096500016466BB9FFF7BEFE044600F12403406ACC
:109660000593FFF765FD237B2BB105A8FFF7DDFF11
:1096700007B0BDE8F08F01235FFA89F92373D4E9BD
:10968000005305EB830AAA4512D055F8047B3146F6
:10969000381DFFF7F7FD8145F5D3039A3B6800922B
:1096A000D3F808B04A46334641463846D847EAE739
:1096B00000232373D9E700BF00ED00E02DE9F74F49
:1096C0009B461A4B80465B688946C3F308031646DF
:1096D0006BB9FFF77FFE044600F12403406A019353
:1096E000FFF726FD237B2BB101A8FFF79EFF03B0F8
:1096F000BDE8F08F0123F6B22373D4E9005305EBE4
:10970000830A55450ED055F8047B5946381DFFF79E
:10971000B9FD8642F5D33B684A4641463846DB6888
:109720009847EEE700232373DEE700BF00ED00E07B
:109730002DE9F341164B05465B680F46C3F308035A
:109740001BBBFFF747FE044600F12403406A019368
:10975000FFF7EEFCD4E90063462406EB8308B0452E
:1097600009D101A8FFF761FFA542B4BF0020012085
:1097700002B0BDE8F08156F8040B39460430FFF71B
:1097800081FD8442A8BF0446E9E70020F0E700BF5E
:1097900000ED00E0F8B5D0E901539D4204460E46C5
:1097A0000DDB6F1C002F006804DDB900FEF736FFEB
:1097B00018B9F8BDFEF724FF00202060A7602768D5
:1097C000626807EB85019200A2EB8502081D02F09A
:1097D000B9FC47F825606368012001336360E8E75E
:1097E00037B5044600F12403406A01930D46FFF7A4
:1097F0009FFCD4E9003203EB8202934219460AD05F
:1098000009680433A942F8D101A8FFF70EFF00252B
:10981000284603B030BD29462046FFF7BBFF05466A
:109820000028F1D06368012B01D1FFF7EFFD01A8FB
:10983000FFF7FBFEECE70B4670B50446D0E90002EB
:1098400000EB820282420FD001461D6851F8046B82
:10985000AE4207D1521A02F075FC01206368013B49
:10986000636070BD0846EDE70020FAE71FB50446C7
:1098700000F12403406A01910393FFF759FC20464D
:1098800001A9FFF7D8FF18B163680BB9FFF7CAFD4C
:1098900003A8FFF7CAFE04B010BD182370B5044634
:1098A000D0E9045603FB0656AE4215D0204605F11A
:1098B0001001FFF7C0FF63680BB9FFF7B3FDE06964
:1098C00029690368DB689847696919B1206A0368E8
:1098D000DB6898471835E7E71826D4E9045306FBF8
:1098E0000356AE4204D0284601F04EFF1835F8E783
:1098F0000023636170BD73B50446FFF793FD04F167
:109900002403606A0193FFF713FC2046FFF7C5FFAD
:1099100001A8FFF78AFE606A08B1FEF75DFCD4E992
:109920000453182606FB0356AE4204D0284601F025
:109930002BFF1835F8E72069FEF762FE2068FEF776
:109940005FFE204602B070BD0148FFF7D4BF00BFE4
:10995000D4AE07108842F8B504460D46164615D910
:10996000904214D2A2F11406751AA1F114072C44E6
:10997000B7421AD01CB131462046FFF733FC06F13E
:109980000800FFF7E9FD143E143CF1E70DD0B542A5
:109990000BD01CB129462046FFF724FC05F1080036
:1099A000FFF7DAFD14351434F1E7F8BD8842F8B555
:1099B00004460D46164614D9904213D2A2F1100661
:1099C000751AA1F110072C44B74218D01CB13146CA
:1099D000204601F055FF304601F0D6FE103E103C07
:1099E000F2E70CD0B5420AD01CB12946204601F05E
:1099F00047FF284601F0C8FE10351034F2E7F8BDE5
:109A000070B50E1E054611DD3001FEF7EBFD044674
:109A100058B1D5E9001201EB0212FFF7C7FF286821
:109A2000FEF7EEFD01202C60AE6070BD0024F6E76D
:109A30002DE9F04F90460023462295B00391D8F8C7
:109A4000041004469942C0E90033C0E90233C0E97A
:109A50000433CDE9083302760A9323DCD8E90057B2
:109A6000142303FB0757AF423BD029460BA801F054
:109A700007FF0BA90FA8099E01F002FFDDE90913FA
:109A800099421BDA089B099A03EB0616314603EB51
:109A9000021206F11000FFF789FFEEB9099B0133AE
:109AA000099311E008A8FFF7ABFF0028D6D108A85A
:109AB000FFF766FD204615B0BDE8F08F013108A81C
:109AC000FFF79EFF0028DDD10FA801F05DFE0BA877
:109AD00001F05AFE1435C6E730460FA901F0D0FE5A
:109AE000DCE700264FF01409CDE90B660D96DDE9A1
:109AF00008239E427CDA3301D35806930BB9013612
:109B0000F5E70023079309FB06F30BAD029307A9C2
:109B100006A8FFF7E6FA82460028F0D04FF00003CF
:109B200001468DF817302846079A0DF11703FFF705
:109B30006DFB9DF817700190002F4AD1BDF81C30C5
:109B4000CDE91177ADF840304FF6FF73CDF83CA06A
:109B5000ADF842301397D5E90132934217DB03F198
:109B6000010ABAF1000F30DD09FB0AF0FEF73AFDF9
:109B7000834660B3D5E9001209FB0212FFF7EAFE43
:109B80002868FEF73DFDC5F800B0C5F808A02B68B1
:109B9000019A09FB023A6A68514609FB02320AF14E
:109BA0001400FFF7D7FEBAF1000F03D050460FA9FB
:109BB000FFF718FB6B6801336B6011A8FFF7CCFC53
:109BC0003FB10BA8FFF7C8FC71E7BB46D8E70127F8
:109BD000F3E7019B2D6809FB0355069B1B782BB906
:109BE000D8F80030029A13441B7CEB8008358EE7CE
:109BF0002168226062686360A36809920A9A0A93E6
:109C0000E368A2600B9A0B932369E2600C9A0C93B1
:109C1000636922610D9A0D93039B0891626123761B
:109C2000CFE70000F0B504462646174687B00D463C
:109C300068461946FDF78FFF0B4B694646F8043B13
:109C400003A8FDF788FF394603AA3046FFF7F0FE68
:109C500003A8FDF73FFF6846FDF73CFF2046034B96
:109C60002562236007B0F0BDF8DF3F0228FB3F020A
:109C7000F0B50F4685B038461C4916461D460A9C6D
:109C8000FDF706FAC0B9A4B1294601A8FFF7BEFC4A
:109C90002420174902F00EF9054630B101AB3246D7
:109CA0002146FFF7BFFF134B2B6001A8FDF712FF02
:109CB0002C46204605B0F0BD38460F49FDF7E8F9BF
:109CC00090B9002CF5D0294601A8FFF79FFC24206D
:109CD000074902F0EFF805460028E6D03246214653
:109CE00001ABFFF79FFFE0E70024E2E7ACFA3F0299
:109CF000E7FC3F0240FB3F02B0FA3F02014B024A41
:109D00001A607047D0AE0710C1FA3F022DE9F04744
:109D1000089DD0F8209004460E4617469846FFF757
:109D200079F881454DD02B79190704D520466A6909
:109D30005449FFF7D0FAB8F1000F0DD05B2120464F
:109D4000FFF744FA41462046FFF731FA2368022222
:109D50002046DB684C4998472B79DA0724D5D5F89B
:109D600008802F21404602F070FA08B100F1010886
:109D700041462046FFF71BFA2B799B0708D53A216D
:109D80002046FFF723FA2046EA684049FFF7A3FA86
:109D90002A79236812F0040F20464FF00202DB6894
:109DA00014BF3B493B4998472B7958071DD5296972
:109DB0000B461A4613F8010B60B1202808D119464A
:109DC000F7E73548FEF7B5FC0028ACD0BDE8F087D2
:109DD0002828EED12368521A2046DB68984723686A
:109DE00004222046DB682D49984700213846FEF7BB
:109DF000D3FA01462046FFF7DAF92368022220460B
:109E0000DB68244998471EB131462046FFF7CFF959
:109E10002B7913F0300F2CD023682149DB68022204
:109E2000204698472B79D9060AD523680722204671
:109E30001C49DB6898472046AA691B49FFF74BFA83
:109E40002B799A0611D5DB0605D523680222204618
:109E5000DB680F4998472368204614490A22DB68CB
:109E600098472046E969FFF7A2F95D212046FFF7F0
:109E7000ADF923682046BDE8F0470222DB680C49B3
:109E8000184700BFC5FA3F02CCFA3F029FDE3F02EF
:109E9000CFFA3F02D4FA3F0280AE0710D2FA3F0257
:109EA000D7FA3F02DAFA3F02E2FA3F02E5FA3F024E
:109EB00085DF3F022DE9F0410446076A0D4616464C
:109EC000FEF7A8FF874207D0206A3246036829467A
:109ED000BDE8F041DB6818470348FEF72AFC00287C
:109EE000F2D0BDE8F08100BF80AE07102DE9F0434D
:109EF00085B0D0F8209005460F4690461E460C9C33
:109F0000FEF788FF814505D14948FEF712FC00287D
:109F100040F08A804FF000092B6A464A01A801925E
:109F200003938DF80890FEF75AFE49464046FEF727
:109F300033FA80464049012201A8FEF7DFFE414680
:109F4000FFF727F93FB13D49012201A8FEF7D6FEF0
:109F50003946FFF71EF93EB13949012201A8FEF743
:109F6000CDFE3146FFF715F92379DF070ED5A66838
:109F70002F21304602F069F900B1461C3149012217
:109F800001A8FEF7BBFE3146FFF703F923799E07D0
:109F900007D52D49022201A8FEF7B0FEE168FEF7C1
:109FA0002BFE2379580714D5266933461F4613F82C
:109FB000012B2AB1202A01D11E46F7E7282AF5D124
:109FC0000222224901A8FEF799FE3146BA1BFEF78C
:109FD000A5FE2379190707D51D49012201A8FEF71F
:109FE0008DFE6169FEF71AFE2379DA0608D5042290
:109FF00018490DEB0200FEF781FEA169FEF7FCFD9A
:10A0000023799B0607D51449062201A8FEF776FEA0
:10A01000E169FFF7BEF801A8FEF7CBFD286A02222E
:10A0200003680E49DB68984705B0BDE8F08300BFC0
:10A0300080AE071010FB3F02A2FA3F02F0FA3F0287
:10A040006BFE3F02F2FA3F02F4FA3F02F7FA3F02D8
:10A05000FAFA3F02FCFA3F0201FB3F0285DF3F02B2
:10A06000F8B506460D4600248F18BD420CD0336863
:10A0700030469B6815F8011B9847031E01DB1C4402
:10A08000F3E7002C08BF1C462046F8BD13B5044674
:10A09000084659B10191FDF705F8024620462368AC
:10A0A0000199DB6802B0BDE81040184702B010BD4E
:10A0B00003689B6818470023012A98BF0A2230B51D
:10A0C0008BB08DF8243009AC0D46B1FBF2F101FBE9
:10A0D000125303F0FF03092B94BF30333733DBB245
:10A0E000AA4204F8013DEFD92146FFF7CFFF0BB09C
:10A0F00030BD7047064B10B5994200F10C0405D0F5
:10A10000084601F0DFFE002808BF0024204610BDED
:10A11000F4F93F0210B504463021FCF7ECFF20466D
:10A1200010BD3021FCF7E7BFF0B50025EC1C8C42D8
:10A130000DD86E1C875D445D974205D12644B1421F
:10A1400005D31D60601CF0BD01342544EEE70020FE
:10A15000F9E710B5836804462BB1032201469847FE
:10A160000023C4E9023310BD10B5836804462BB147
:10A170000322014698470023C4E9023310BD38B5D5
:10A18000036805468B420C4608D011B14B68013379
:10A190004B60286808B1FEF733FC2C6038BD000026
:10A1A000002310B50370044B04461868FEF722F82C
:10A1B00001232046237010BD00AF071010B50378AF
:10A1C00004461BB1024B1868FEF722F8204610BD6A
:10A1D00000AF0710052994BF405C0020704782B093
:10A1E0006A4603460868496803C26A4603CA18609B
:10A1F0001846596002B0704708B582798B799A4247
:10A2000006D1062201F081FFB0FA80F0400908BDB6
:10A210000020FCE770B50446384B86B018689B8870
:10A220000090ADF80430364BA67918689B880290F0
:10A23000ADF80C307EB906226946204601F065FF74
:10A2400038B10622204602A901F05FFF003818BF8E
:10A25000012006B070BDA3882068ADF8143006F068
:10A26000FD03012B049024D19DF81550062205F022
:10A270003F05694604A88DF8155001F046FF0028F7
:10A280003AD065F03F05062202A904A88DF81550C2
:10A2900001F03BFF80B36079012E00F0C00004D1D3
:10A2A000C02814BF00200120D3E7B0FA80F0400995
:10A2B000CFE7022E1ED103229DF815500DEB0201AF
:10A2C00005F03F050DF113008DF8155001F01DFF4D
:10A2D00090B165F03F0503220DF10B010DF1130064
:10A2E0008DF8155001F011FF30B1607900F0C00019
:10A2F0004028D6E70120ACE70020AAE718DE3F029D
:10A30000BEFB3F024FF0FF330360838000207047A5
:10A310000021024608B501604160FFF7F3FF1046D7
:10A32000917108BD0123024610B50361044B03F18E
:10A33000100153F8044B8B4242F8044BF9D110BD85
:10A340001EDE3F0210B50B460446B1B1012A01F1F1
:10A3500010020AD1014653F8040B934241F8040B52
:10A36000F9D101232361204610BD411E12F8010DD1
:10A370009A4201F8010FF9D1F3E7102201F0FCFE37
:10A38000F1E738B504460D46FFF7CCFF0023204621
:10A390002361A58138BD08B502690B699A4206D1CF
:10A3A000102201F0B2FEB0FA80F0400908BD002092
:10A3B000FCE7F7B5054616461F460A46D0E90001F8
:10A3C00001ABFFF7B1FE30F002040CD0841EBC429A
:10A3D00028BF3C463EB101992B68023122463046E7
:10A3E000194401F0A2FE204603B0F0BD37B5134674
:10A3F0000C4601920A4608210546FFF7DAFF40B9EC
:10A40000224609212846019B03B0BDE83040FFF7F2
:10A41000D0BF03B030BD0000F0B50C4689B00C4988
:10A42000054601F0FCF91F2269462046FFF7DEFFD2
:10A43000064650B16C460027284614F8011B01F06F
:10A440005BFA10B10137BE42F6D1284609B0F0BD23
:10A4500087DF3F0207B50223192101AAFFF7A9FFF1
:10A4600008B1BDF8040003B05DF804FB10B5D0E9F5
:10A47000063203EBC2029342184605D00468083343
:10A4800024888C42F7D110BD0020FCE770B5002570
:10A49000064605603020FCF72AFE044698B10123E9
:10A4A000C0E901330A4B0E3040F80E3C4FF6FF7303
:10A4B00020F8023CFFF72CFFC4E90655C4E9085513
:10A4C000C4E90A55A57574600C343046346070BD1B
:10A4D00068FC3F0237B50D46044601A8FFF760FE51
:10A4E0002A6801A8D2F802302360D2F806306360EF
:10A4F000FFF764FE204603B030BD30B505460C467C
:10A5000087B001A8FFF74CFE2A68236812881B88D1
:10A510009A420DD1294602A8FFF7DCFF214604A884
:10A52000FFF7D8FF04A902A8FFF766FE044600B9AA
:10A53000002401A8FFF742FE204607B030BD00000E
:10A5400070B506467420FCF7D2FD0446A0B1002584
:10A55000C0E90055C0E90255C0E90455C0E90655F7
:10A5600005622430FFF792FF04F12C00FFF78EFF05
:10A57000E563E564E565E566346024B90A200A4AC6
:10A580000A49FDF7EDFE0020FDF750FE20B10A203C
:10A59000054A0749FDF7E4FE002231680548FDF74A
:10A5A0007DFE304670BD00BF659C3F0280FB3F02D0
:10A5B000C5FB3F0275C73F0210B50A4CD4E88F3F78
:10A5C000DB070CD42046FCF7A5FD40B10648FFF799
:10A5D000B7FF2046FCF7A3FD044801F085FD0248C3
:10A5E00010BD00BFFCAE071004AF071021CA3F0228
:10A5F00010B504464069FEF703F8A068FEF700F8BE
:10A60000204610BD002247F67F71C0E90022C0E954
:10A610000222C0E90422C0E90E22C0E91022C0E9EA
:10A620001222C0E91422C0E91622C0E91822C0E9AA
:10A630001B2202620263A0F86810704710B504463E
:10A640000068FDF7DDFF204610BD70B504462426E6
:10A65000C06DFDF7D5FF206DFDF7D2FF04F1380581
:10A6600004F14400FFF7EAFF2846FEF789FF04F1F2
:10A670002800FDF71DF904F11800FDF719F9D4E9D8
:10A68000005306FB0356AE4204D02846FFF7B0FF46
:10A690002435F8E72068FDF7B3FF204670BD38B5D4
:10A6A000141E0546436802DB62189A4200DD5C1AFC
:10A6B0002A68501801191A44521A01F043FD6A68B9
:10A6C000121B6A6038BD0B68036013B15A6801320F
:10A6D0005A60704710B5044651F8043B40F8043BFB
:10A6E000FFF7F1FF204610BD70B50446D0E90053D6
:10A6F00005EBC306AE4204D0281DFEF71FFB08354C
:10A70000F8E72068FDF77CFF204670BD70B5044671
:10A71000D0E9005305EBC306AE4204D0281DFEF776
:10A720000DFB0835F8E72068FDF76AFF204670BD8D
:10A7300010B504462430FFF7E9FF04F11800FFF7D5
:10A74000D3FF10BD826810B50AB901F0B7FBC3682A
:10A75000BDE81040184700232DE9F047C0E9003359
:10A760008360D1F80480054698450F464ADD4FEADC
:10A770000810FDF737FF0646002843D0D5E9004111
:10A78000A04204EB011A16D9504515D2AAF1100ABD
:10A79000A4F11009AAEB04040444D1451DD01CB156
:10A7A0005146204601F06CF8504600F0EDFFAAF14A
:10A7B000100A103CF1E710D0B146A2450DD0B9F116
:10A7C000000F03D02146484601F05AF8204600F019
:10A7D000DBFF103409F11009EFE72868FDF710FFDF
:10A7E000C5F808802E60D7E9004304EB0318A045A4
:10A7F00006D02146304601F05DF810341036F6E7F9
:10A800007B686B602846BDE8F08730B58DB00C469C
:10A8100000F1380101A8FFF79EFF029B002B2FDDFE
:10A8200004F1140104A8FFF7F7FD04F1080108A8DA
:10A83000FFF7F2FD0A9A069B13431FD0DDE901459D
:10A8400004EB0515AC4219D0204604A901F076F8B6
:10A8500060B1012408A800F097FF04A800F094FF5D
:10A8600001A8FEF78DFE20460DB030BD204608A998
:10A8700001F064F810340028E4D0EAE70024E9E7A6
:10A880000124EDE7F8B50023C0E9003383604F6889
:10A8900005469F420E4640DDF800FDF7A3FE044644
:10A8A000D8B3D5E90003844200EBC30310D99C421E
:10A8B0000FD2083B1A1AA0F1080C22449C4518D06C
:10A8C0001AB11968116059685160083B083AF5E7F8
:10A8D0000FD0014622468B420BD03AB1D1F800C0CE
:10A8E000C2F800C0D1F804C0C2F804C00831083270
:10A8F000F1E7FDF785FE2C60AF60D6E9003103EB90
:10A90000C100984208D01A68083444F8082C5A68E4
:10A91000083344F8042CF4E769602846F8BD70B5A4
:10A9200004460020C4E90000A0604E680D4686423F
:10A9300012DD7100FDF772FE70B12060A660D5E9EE
:10A94000003203EB42029A4204D033F8021B20F893
:10A95000021BF8E76B686360204670BD10B5037991
:10A96000044623B90368186808B1FDF749FE20467C
:10A9700010BD10B50379044623B90368186808B1FF
:10A98000FDF73EFE204610BD2DE9F043D0F86C8067
:10A990000F468FB0B8F1000F72D0056F002D6FD049
:10A9A00001F114091F230022FF214846FFF701FD92
:10A9B000FF2308370446002219463846FFF7F9FC02
:10A9C000AC42064606D0AE4230D0002420460FB03E
:10A9D000BDE8F0832046FDF705FE03AB049300239A
:10A9E000044603908DF8143070B92023CDE9063069
:10A9F000244B2549009306AA03463220FDF7BEFCEE
:10AA000004A8FFF7ABFFE1E70246FF212B464846CB
:10AA1000FFF7CFFC2A464146039801F076FB18B1B8
:10AA200004A8FFF79BFFCEE70124E9E72846FDF7DE
:10AA3000D9FD002403AB0646039004938DF814401F
:10AA400078B92023CDE906300E4B0F49009306AAB2
:10AA500003463220FDF792FC344604A8FFF789FF35
:10AA6000B4E70246FF212B463846FFF7A2FC2A46F0
:10AA70004146039801F049FB0028EED10124ECE7A0
:10AA80000124A3E707FC3F0297FB3F0238B50D1EE8
:10AA90000446006803DDFDF7C1FD18B938BDFDF7B8
:10AAA000AFFD00202060A5600120F7E708B58368AE
:10AAB0008B4202DAFFF7EAFF08BD0120FCE738B558
:10AAC0000023C0E9003383600D464968044699427B
:10AAD00010DDFFF7DBFF68B1D5E9003122681944CA
:10AAE000994205D00AB11878107001330132F7E7A6
:10AAF0006B686360204638BD38B504460D460B6868
:10AB0000083040F8083C4B68083140F8043CFFF737
:10AB1000D6FF05F1140104F11400FFF7D0FF95F8FA
:10AB20002030204684F8203038BD1FB5044601A8E7
:10AB3000FFF7C5FF019B029A20682360636862608B
:10AB4000039A0293A368A26001900393FDF758FD56
:10AB500004B010BD2DE9F0410F4641681D4619446F
:10AB6000836804469942904612DC266862683E4437
:10AB70003146D21B701901F0E5FA2A4641463046AB
:10AB800001F0D3FA012063682B446360BDE8F081D3
:10AB9000FFF77CFF0028E8D1F8E713460A460021BA
:10ABA00010B50446416002B10BB9002010BDFF2B67
:10ABB00028BFFF23FFF7CEFF0028F7D06068F5E736
:10ABC000F8B50D46D0E901139942044616460BDA52
:10ABD000276862687919521B481C01F0B3FA7E5548
:10ABE000636801336360F8BD0131FFF74FFF002850
:10ABF000EED1F8E70A464168FFF7E2BF2DE9F743D7
:10AC000004461D460F4601AB90460A46D0E90001B6
:10AC10009DF82890FFF788FAAE1C02466368B9F1E8
:10AC2000000F26D128B333441B1AFF2B09D8204626
:10AC30000199FFF734FD616820463144FFF736FF84
:10AC400018B9606803B0BDE8F0836A1C204601991A
:10AC5000D2B2FFF7B5FF01993A4601312046FFF71E
:10AC6000AFFF2B464246019902312046FFF772FFA3
:10AC7000E7E7F118FF29E4D82046FFF717FF00287F
:10AC8000DFD0691C2046C9B2FFF7B4FF3946204621
:10AC9000FFF7B0FF2B4642466168E6E730B49DF807
:10ACA00008501AB1029530BCFFF7A8BF406830BC0D
:10ACB00070471FB500230622C0E90033836000936C
:10ACC000012304468DF80F2019460DF10F02FFF7FE
:10ACD000E5FF204604B010BD8842F8B504460D4695
:10ACE000164614D9904213D2A2F10806751AA1F1A2
:10ACF00008072C44B74218D01CB131462046FFF754
:10AD0000E9FC301DFEF71AF8083E083CF2E70CD0CB
:10AD1000B5420AD01CB129462046FFF7DBFC281DAE
:10AD2000FEF70CF808350834F2E7F8BDF7B504462D
:10AD300046686846FFF7CEFCD4E901739F4212DBF8
:10AD40000137002F29DDF800FDF74CFC0546F0B176
:10AD5000D4E9001201EBC202FFF7BEFF2068FDF745
:10AD60004FFC2560A7602368626803EBC606314686
:10AD700003EBC20206F10800FFF7AEFF1EB1694601
:10AD80003046FFF7A7FC012563680133636001A823
:10AD9000FDF7D4FF284603B0F0BD0025DEE7F8B587
:10ADA0000546D0E900430F4604EBC306A64205D092
:10ADB00039462046FFF7A1FB08B114B9F8BD0834A5
:10ADC000F4E7201DFDF7BAFFD5E90032204603EB7A
:10ADD000C20204F10801FFF77FFF6B68013B6B6063
:10ADE000ECE700002DE9F04305468FB003A80C46C0
:10ADF000FFF7D6F92E68F31E0D2B6AD8DFE813F0A3
:10AE00000E0078006900FC006900690069006900B3
:10AE10006900C600C600C600C600C600606A04F12C
:10AE200018060230FFF7F6F938B32146AA8951F81F
:10AE3000243F06A81A80FFF74DFC06A93046FFF70D
:10AE400075FF07A8FDF77AFF06A8FFF71FFB069B13
:10AE500004F1280007996362FFF791F907A8FDF74D
:10AE60006DFF20210023CDE906136D4A00920120D9
:10AE70006C4906AAFDF782FA2BE004A8FFF706FB4F
:10AE8000AA89049B1A806968049808310230FFF788
:10AE9000A6F904A906A8FFF71DFC304606A9FFF78E
:10AEA00045FF054607A8FDF749FFC5B92023CDE9B1
:10AEB00006355D4B01205B49009306AA2B46FDF742
:10AEC0005DFA049B29461888FDF7DAF905A8FDF715
:10AED00035FF03A8FFF772F90FB0BDE8F083E36B0D
:10AEE00023B104A904F13400FFF72CFC05A8B6E750
:10AEF0002046A989FFF7BAFA06460028E9D001469C
:10AF000004F12C00FFF7F9FA04F1180848B13146B2
:10AF10004046FFF744FF20220023CDE90623434AA1
:10AF2000A4E74FF6FF713568D5E90632298003EBB7
:10AF3000C2029A4203D053F8080B4180F9E7D5E9E1
:10AF4000037307EBC309B94504D0381DFDF7F6FEBE
:10AF50000837F8E700232B61D5E9067307EBC3092F
:10AF6000B94504D0381DFDF7E9FE0837F8E700239E
:10AF7000EB61AB72E36C23B1314604F14400FFF79F
:10AF8000E1FB4FF6FF7233681A80C0E72046A989BB
:10AF9000FFF76CFA00289CD0E36D002B99D00023BA
:10AFA0000D2EADF8163001D0102E17D10023696890
:10AFB0001A4606258DF81530049109AB8DF814203A
:10AFC00006908DF81C60DDE90401089583E8030014
:10AFD000236E06A904F1540098477AE70F2E01BFAB
:10AFE0002B7A696803F0010208251DBF1A4619462D
:10AFF0001D46C3F34003DDE7A9892046FFF736FA73
:10B00000014600283FF465AFE36E002B3FF461AFCB
:10B010006B6806AA069304F16400236F984758E70B
:10B0200048FC3F0297FB3F0222FC3F0252FC3F02DA
:10B0300070B504466430FCF73BFC04F15400FCF7A7
:10B0400037FC04F14400FCF733FC04F13400FCF756
:10B050002FFC04F13000FDF771FE04F12800FDF72C
:10B060006DFED4E9065305EBC306AE4204D0281D9D
:10B07000FDF764FE0835F8E7A069FDF7C1FA04F1B1
:10B080000C00FFF743FB2046FFF72EFB204670BD68
:10B0900010B5064B1C6844B12046FFF7C9FF204697
:10B0A000BDE810407421FCF726B810BD04AF0710AE
:10B0B00038B50D1E0446006805DD14216943FDF70F
:10B0C000ADFA18B938BDFDF79BFA00202060A560E5
:10B0D0000120F7E72DE9F8430024C0E9004484602B
:10B0E000884649680746A1421CDDFFF7E1FFC8B169
:10B0F000D8E900934FF0140C0CFB039CD7F800E048
:10B1000009EB0405AC450AD01EEB04061EBF0FCDAB
:10B110000FC62B6804F1140418BF3360F0E7D8F8A9
:10B1200004307B603846BDE8F8832DE9F843456874
:10B130008368D1E90087E9199942044617DC142392
:10B1400062685D4303FB07F95A432668521B2E448D
:10B15000314606EB090000F0F5FF4A46414630460D
:10B1600000F0E3FF63683B446360BDE8F883FFF7EA
:10B170009FFF0028E3D1F8E782B070B50C4604A920
:10B1800081E80C00D0E901139942054617DA14232F
:10B190006A6803FB04F15A432C68521A0C44214696
:10B1A000E01804AE00F0CEFF0FCE0FC4336823606A
:10B1B0006B6801336B60BDE8704002B070470131CD
:10B1C000FFF776FF0028E2D1F5E72DE9F04F0024E4
:10B1D00005460F469046931EC0E9004493B0DBB28B
:10B1E0008460059379688C4272DA3868424607AB0E
:10B1F000091B2044FEF798FF0646002868D0059BEF
:10B20000012B2FD84FF00009A0F1020B4FEA5B0B86
:10B210000DF13C0A079BCB45234455D03A6803EB1C
:10B2200049031344D9789B7808A843EA0121FFF722
:10B23000A8F80DF1340C0DF1200EBEE80F00ACE8BB
:10B240000F00DEF8003009F10109CCF800309AE86F
:10B2500007008DE807000DAB28460CCB6968FFF7A7
:10B260008BFFD7E7A8F10603012B2DD84FF000097B
:10B27000A0F1020B4FEA1B1B0DF13C0ACB45079BCB
:10B2800022D002333968234403EB09130122194405
:10B2900008A8FFF757F80DF1340C0DF1200EBEE8A9
:10B2A0000F00ACE80F00DEF8003009F10109CCF81E
:10B2B00000309AE807008DE80700DDE90D232846F5
:10B2C0006968FFF759FFD9E7079B1C44344489E7B5
:10B2D000284613B0BDE8F08F002330B504460D4674
:10B2E00085B0C0E900338360022201A8FFF76DFF3B
:10B2F00001A92046FFF719FF01A8FFF79FF90222D5
:10B30000294601A8FFF761FF01A92046FFF70DFFBD
:10B3100001A8FFF793F90322294601A8FFF755FF7B
:10B3200001A92046FFF701FF01A8FFF787F90622D0
:10B33000294601A8FFF749FF01A92046FFF7F5FEBE
:10B3400001A8FFF77BF90722294601A8FFF73DFF77
:10B35000204601A9FFF7E9FE01A8FFF76FF9204693
:10B3600005B030BD2DE9F04F8BB00C4600F1440123
:10B3700001A8FFF7AFFE029B002B4ADD04F1140188
:10B3800004A8FFF7A9FF04F1080107A8FFF7A4FF2D
:10B39000059D089E002D01DC002E38DD1423019A46
:10B3A000029F9246DDF81080DDF81C9003FB072712
:10B3B00003FB058503FB0696BA4528D0C346AB457B
:10B3C00015D059465046FEF7E6FF0BF1140B044624
:10B3D0000028F4D007A8FFF731F904A8FFF72EF9E9
:10B3E00001A8FFF72BF920460BB0BDE8F08FCB4644
:10B3F000B34509D059465046FEF7CDFF0BF1140B6B
:10B4000004460028F4D0E5E70AF1140AD4E7002442
:10B41000E0E70124E4E78842F8B504460D46164605
:10B4200014D9904213D2A2F12406751AA1F124076F
:10B430002C44B74218D01CB131462046FFF75CFBC4
:10B440003046FFF7D5F8243E243CF2E70CD0B54255
:10B450000AD01CB129462046FFF74EFB2846FFF7CD
:10B46000C7F824352434F2E7F8BDF8B50E1E0546BA
:10B4700013DD242707FB06F0FDF7B4F8044658B1A6
:10B48000D5E9001207FB0212FFF7C5FF2868FDF798
:10B49000B7F801202C60AE60F8BD0024F6E7002369
:10B4A0002DE9F041C0E9003383600F464968054645
:10B4B000994229DDFFF7D9FF30B3D7E900434FF0B8
:10B4C00024082E6808FB03480834A4F108029045BC
:10B4D00018D0A6B154F8083C2146336054F8043C17
:10B4E00006F108007360FFF7EAFA04F10C0106F1B7
:10B4F0001400FFF7E4FA94F9183086F82030243667
:10B500002434E2E77B686B602846BDE8F0810000E8
:10B5100038B50C46054601F11800FEF71AFE04F195
:10B520002800FEF721FE002221460448FCF78CFE8D
:10B5300021462846FFF7B3FF284638BDF1CE3F022B
:10B5400010B504469EB001A8FFF75CF8204601A99B
:10B55000FFF7DEFF01A8FFF778F820461EB010BD08
:10B560002DE9F04306460C469DB001AD2846FEF796
:10B57000CFFE03A8FFF79DFB06A8FFF79AFB3069F3
:10B58000716913AB03C3337885E80300F289B168AE
:10B5900006A88DF82430FFF700FBB289716803A874
:10B5A000FFF7FBFA94F9683013AF7F2B03D09DF9B6
:10B5B00024209A425CDB94F969307F2B03D09DF9FB
:10B5C00024209A4254DC384604F15001FFF75AF91E
:10B5D000149B002B52DD139E06EBC309B14550D0DE
:10B5E00030462946FEF708FE083680460028F5D08A
:10B5F0001398FDF705F8B8F1000F39D02946204619
:10B60000FFF703F9A0B329462046FFF7ABFE064635
:10B6100070B3384604F15C01FFF781F9149B002BED
:10B6200012DD06A8FEF716FF804603A8FEF712FFFC
:10B63000DDE9133203EB42029A4225D033F8021BB4
:10B64000884501D08842F7D11398FCF7D9FF7EB125
:10B6500029462046FFF798F950B1236AB3B139461D
:10B660006369139501336361636A04F118009847B5
:10B670002846FEF7BDFF1DB0BDE8F0834FF001087E
:10B68000B6E74FF00008B3E70026DDE7D4F83080D6
:10B69000B8F1000F07D0636929460133636104F1F3
:10B6A0002800636BE3E7D4F80CC0BCF1000F25D091
:10B6B00063692269013393426361D9D824225343D9
:10B6C0002A46243B0CEB030603CA4CF803007160C6
:10B6D00006F1080003A9FFF728FA06A906F11400ED
:10B6E000FFF723FA9DF9243086F82030D4E904329C
:10B6F0009A42BDD34046FCF7B5FDB9E70DF12808E5
:10B7000095E8030088E8030003A90CA8FFF7D7F920
:10B7100006A90FA8FFF7D3F99DF824304146384613
:10B720008DF848306668FFF7E7F9D4E901139942CC
:10B7300010DA24222368616802FB063602FB01321C
:10B7400006F124003146FFF766FE86B963680133CF
:10B75000636005E020460131FFF787FE0028E8D14D
:10B760003846FEF745FF4046FEF742FF80E7394680
:10B770003046FFF7C1F9E9E7002302480360FCF710
:10B780001DBD00BF00AF071010B504460068FCF7F0
:10B7900037FF204610BD10B50446006808B1FCF71D
:10B7A0002FFF0023C4E90133236010BD38B50446E0
:10B7B0000D4600680131FCF731FF10B1C4E9000506
:10B7C000012038BD10B50368044623B143688B429D
:10B7D00001D3012010BD2046FFF7E8FF0028F9D073
:10B7E000A368002BF5D122681370F2E737B50D4638
:10B7F000114601920446FFF7E5FF019A28B9204659
:10B80000FFF7C9FF204603B030BD2946A26020687B
:10B8100000F08BFC00212268A368D154F2E70023DA
:10B8200013B50446C0E900338360037341B1084691
:10B830000191FBF737FC019902462046FFF7D6FF3E
:10B84000204602B010BD38B5054600680C4668B108
:10B850006A688B689A4207D3096800F0DAFCA3682B
:10B86000AB600023A36038BDFCF7CAFE23682B60E1
:10B8700063686B60A368AB600023C4E90033F1E741
:10B88000002310B50446C0E9003383600373FFF75B
:10B89000DAFF204610BD884210B5044605D00B687B
:10B8A0002BB18A681946FFF7A1FF204610BDFFF7AC
:10B8B00072FFFAE7002310B50446C0E90033836045
:10B8C0000373FFF7E8FF204610BD70B505460E462E
:10B8D00009B9002070BD6AB1846814442146FFF79D
:10B8E00071FF0028F5D02868AB683146184400F095
:10B8F00090FCAC600120EDE7002307B501228DF834
:10B90000041001A98DF80530FFF7DFFF03B05DF8E3
:10B9100004FB02680B46096862B141B9806860B1F6
:10B9200010787047986840B10978484270471046CF
:10B93000FBF7AEBB0029F5D10846704708B5826811
:10B940008B689A4205D1FFF7E4FFB0FA80F0400916
:10B9500008BD0020FCE7000002220020044B1A6012
:10B96000044B054AC3E900009A60FCF7F5BD00BF2F
:10B9700014AF071008AF07100000FFFF0022406857
:10B980001146FCF7A3BD002240681146FCF7BABD82
:10B9900000224068FCF7A8BD0022406881F0010148
:10B9A000FCF786BD002340681A461946FCF772BDB5
:10B9B000002340681A461946FCF75EBD0022406825
:10B9C0001146FCF74BBD002240681146FCF72ABD2A
:10B9D000002202214068FCF733BD002340681A466C
:10B9E000FCF712BD0322024B5A60024A1A607047EC
:10B9F00018AF071084FC3F027047000038B51425CB
:10BA000004462A46002100F0B7FB2580402507495F
:10BA100028462581258200F04FFA044960602846B7
:10BA200000F04AFAE060204638BD00BFE7FC3F0264
:10BA30007047704710B50446FFF7E0FF204610BD81
:10BA400010B50446FFF7DAFF204610BD10B50446D6
:10BA5000FFF7D4FF204610BD30B50E4D87B0D5E8B6
:10BA60008F1F11F0010411D12846FBF753FB68B179
:10BA700001A8FFF7DFFF214601AA0748FCF750FFA6
:10BA80002846FBF74CFB054800F02EFB024807B0A8
:10BA900030BD00BF24AF071030AF071089D33F027D
:10BAA00010B50D4C86B0D4E88F3FDB0711D420468B
:10BAB000FBF730FB68B101A8FFF7C2FF012101AA23
:10BAC0000648FCF72DFF2046FBF729FB044800F051
:10BAD0000BFB024806B010BD28AF071044AF07109B
:10BAE000C3D33F0210B5FFF7DBFF074B044653B14A
:10BAF000FCF734FF38B1236820461B6998470028BB
:10BB000001DD00E000BF10BD0000000010B50D4CCD
:10BB100086B0D4E88F3FDB0711D42046FBF7FAFA52
:10BB200068B101A8FFF792FF022101AA0648FCF7BD
:10BB3000F7FE2046FBF7F3FA044800F0D5FA024876
:10BB400006B010BD2CAF071058AF0710C1D33F028D
:10BB500010B5FFF7DBFF074B044653B1FCF7FEFEC1
:10BB600038B1236820461B699847002801DD00E0B2
:10BB700000BF10BD000000004FF08042D2F8183224
:10BB800023F0FE6343EA0050C2F818027047000039
:10BB9000012870B54FF080444AD1D4F8A0309A0003
:10BBA00045D44FF09045D5F80832022043F0805339
:10BBB000C5F80832D5F88032214E43F00303C5F8AA
:10BBC0008032B047D5F880324FF4C87043F0040398
:10BBD000C5F88032D4F8803043F00043C4F8803098
:10BBE000B047D5F8643223F00053C5F86432D4F876
:10BBF000803043F0C043C4F88030236823F48023AE
:10BC00002360D4F8843043F00103C4F88430D4F8BE
:10BC1000A0309B00FBD5D4F8803043F48073C4F887
:10BC20008030D4F8803043F08003C4F8803070BD99
:10BC3000D4F8803023F0C04323F4C073F5E700BF8D
:10BC400049A910100023C0E90033C0E9023370474E
:10BC5000436801290BBF23F4803343F480334360EE
:10BC600043600BBF4368436843F4003323F400335D
:10BC700043607047436801290BBF23F0807343F092
:10BC80008073436043600BBF4368436843F00073B5
:10BC900023F000734360704738B50B6805460C46C7
:10BCA00033B1023B012B03D93A211F4800F0D4FBEA
:10BCB0006368032B06D9063B012B03D93B211A48A5
:10BCC00000F0CAFBA368012B03D93C21164800F001
:10BCD000C3FBE368032B03D93D21134800F0BCFBF1
:10BCE0006B68002143F001036B606B68284623F00A
:10BCF00001036B600D4BEB610D4B98470D4B984763
:10BD0000D4E900136A681B0222F0405222F46C52FC
:10BD100043EA01331343A26843EAC223E26843EAD9
:10BD200002736B6038BD00BFD9FC3F027102108006
:10BD3000E1D53F0205D63F02836801290BBF43F4DA
:10BD4000002323F40023836083600BBFC368C368B0
:10BD500023F4002343F40023C36070472DE9F74325
:10BD60001F46DDE90A560C2358434B4B0C4653F84B
:10BD70000080D8F8049031B94FF4A7714748019278
:10BD800000F06AFB019A39460C23454F0020B84762
:10BD9000FF2807467ED054220021424B2046984778
:10BDA0000B21216408F110010022022301202162ED
:10BDB0001321C9F30139B9F1030FC4E90423A264C3
:10BDC0002263E064636022706770E16244D1C4E979
:10BDD0000620E260A3602685238DB3F5805F04D939
:10BDE00040F277112D4800F037FB22462E4B617848
:10BDF0002078656298472D4A2F465369DB0322D588
:10BE0000681C30D1711C30D10023C2F88430BFF3DC
:10BE10004F8F43F6E075D2F88030C3F3C900C3F307
:10BE20004E335B01014603EA050747EAC176013953
:10BE3000C2F87462F9D2203B13F1200FF2D1BFF3A4
:10BE40004F8FBFF36F8F207801226178184B98478E
:10BE5000012003B0BDE8F083C4E90633E360A360CA
:10BE6000B3082385B8E7EB0607D025F01F07354454
:10BE7000013D25F01F052035EE1B3546BFF34F8FE2
:10BE80000A4A3744002DA7EB0503D8DDC2F870320B
:10BE9000203DF7E70020DCE7B8FC3F02C4FC3F028E
:10BEA0003DC41010A10E1110F9BF101000ED00E0FC
:10BEB00091BF1010FBF71BB9FBF71BB908B5FCF7D6
:10BEC000C9FB0000014900F0F9B800BF00FD3F02C6
:10BED0007FB50024102315461268CDE902340368AB
:10BEE000CDE900449E696B46B0479DF8043003F0ED
:10BEF0000603062B05BF009B012020462B6004B0E3
:10BF000070BD0098904214BF0120062070470000C9
:10BF1000034B10B50446036000F0CDF8204610BD79
:10BF200040FD3F0210B50446FFF7F2FF082120460E
:10BF3000FBF7E1F8204610BD2DE9F041DDF818804F
:10BF40001F4606461546DDE90834984507D107998E
:10BF500000F0B4F818B165710020BDE8F0813946F1
:10BF6000304600F0ABF80028F6D00123C4F800807A
:10BF70002571A371F0E738B515461C4600F09EF810
:10BF800020B108232560E3600623237138BD73B513
:10BF900005460C461E46019200F090F850B9032E5B
:10BFA00008D823682946019A20465B6902B0BDE89B
:10BFB0007040184702B070BD034B10B504460360D3
:10BFC000FFF7A6FF204610BDA0FD3F0210B50446B6
:10BFD000FFF7F2FF0C212046FBF78DF8204610BD3D
:10BFE000F7B5089F05460E46144697420AD0A86842
:10BFF000314602680897156A2246AC4603B0BDE890
:10C00000F04060471946019300F058F8019B002862
:10C01000EDD0062003B0F0BD2DE9F14F0D461946D5
:10C02000814617469846DDE90A4BDDE90CA600F08B
:10C0300045F890B1002D3460377109DB61198A45EC
:10C040000CBF06210121B171002001B0BDE8F08FC5
:10C050000235F9D10123B371F6E7544506D15946AB
:10C06000484600F02BF808B17771EDE7D9F80800E1
:10C070003A4629460368CDE90CA6CDE90A4BDC69AE
:10C080004346A44601B0BDE8F04F60472DE9F041BA
:10C0900007460C4615461E46FFF76DFF48B9B868BF
:10C0A0002A46214603689F693346BC46BDE8F041F5
:10C0B0006047BDE8F081704700207047814208B5B5
:10C0C0000ED0406803782A2B0CD049680B782A2BB5
:10C0D00008BF0131FAF7DCFFB0FA80F0400908BD73
:10C0E0000120FCE70020FAE7002301461A46184623
:10C0F00000F04CB9024B1844407800F097007047AC
:10C100006DFE3F027047704770470139024410B519
:10C11000904201D1002005E0037811F8014FA342BD
:10C1200001D0181B10BD0130F2E70A44431E9142B2
:10C1300000D1704710B511F8014B914203F8014F3F
:10C14000F9D110BD884210B501EB020402D9844236
:10C15000234607D8431EA14208D011F8012B03F84B
:10C16000012FF8E7024401468A4200D110BD13F8BE
:10C17000014D02F8014DF7E702440346934200D116
:10C18000704703F8011BF9E738B5104B04461D68EA
:10C19000AB6BB3B91820FCF725FA0246A86320B9A7
:10C1A0000B4B42210B48FCF771FA0B490B4BC0E9D2
:10C1B00000130B4B002183600B2383810120C2E914
:10C1C0000401AB6B00221C615A6138BD80A00710CE
:10C1D000D9FD3F02F0FD3F020E33CDAB34126DE6C8
:10C1E000ECDE0500C9B2034610F8012B1AB18A42F1
:10C1F000F9D118467047002918BF0023F9E710B598
:10C200000446FFF7EFFF18B92046FAF74BFF20442A
:10C2100010BD034611F8012B03F8012B002AF9D1B8
:10C22000704710B57AB103460139841813F8010B31
:10C2300011F8012F904201D1A34201D1801A10BD03
:10C240000028F3D1FAE71046F9E738B503460C4663
:10C2500069B9BDE83840FFF7C5BF431C0546214614
:10C260001846FFF7BFFF0028F7D1284638BD002544
:10C27000F5E70000012B2DE9F04701D0242B06D96A
:10C28000FCF7F6F9162303600020BDE8F0870D46A1
:10C29000DFF8E0C02E4615F8014B14F80C7017F0CB
:10C2A0000807F7D12D2C32D12C780127B51C002B93
:10C2B0005BD0102B09D1302C07D12C7804F0DF048F
:10C2C000582C4DD16C781023023507F100484FF0FF
:10C2D000000C08F1FF386646B8FBF3F903FB198A36
:10C2E000A4F1300EBEF1090F16D87446A34224DD26
:10C2F000BCF1000F1EDBB1451CD301D1A24519DBF7
:10C3000006FB03464FF0010C15F8014BE8E72B2C18
:10C3100004BF2C78B51CCAE7A4F1410EBEF1190F79
:10C3200001D8373CE2E7A4F1610EBEF1190F04D841
:10C33000573CDBE74FF0FF3CE6E7BCF1000F05DAC6
:10C3400022234646036042B930469EE707B1764253
:10C35000002AF9D0BCF1000F00D0691E1160F3E78C
:10C360003024002BB1D10823AFE7302CA5D00A230D
:10C37000ABE700BF6EFE3F0213460A460146024885
:10C380000068FFF777BF00BF80A007102DE9F843D2
:10C39000DFF8BC8006461F460D46D8F800009146DF
:10C3A000FFF7B0FE264B1C6834B9264C1C60264BA8
:10C3B00013B11B68C4F8883063681F2B07DDD8F8F9
:10C3C0000000FFF7A1FE4FF0FF30BDE8F8835EB339
:10C3D000D4F8880088B91D4B23B9D8F80000FFF7BE
:10C3E00092FEF0E74FF48470FCF7FCF80028F4D0DC
:10C3F0000023C0E94033C4F8880063680122022E9C
:10C4000040F8239002FA03F200EB8301D0F80031E8
:10C4100043EA0203C0F80031C1F8807002BFD0F8CF
:10C4200004311343C0F804316368D8F800005A1C83
:10C430000233626044F82350FFF766FE0020C4E731
:10C44000FCAF071070AF071000000000759F3F029F
:10C45000E4A007100000000001B40248844601BCBB
:10C46000604700BF71A8101001B40248844601BCA7
:10C47000604700BF95A9101001B40248844601BC72
:10C48000604700BF49A91010000000000000FB3405
:10C490009B5F800000800010000000000000000092
:10C4A000458A3F026D8A3F02718A3F020000000008
:10C4B00043616C6C206F6E207075726520766972B6
:10C4C0007475616C004564676520496D70756C73A7
:10C4D0006520696E666572656E63652072756E6E45
:10C4E000657220666F72205061727469636C65209A
:10C4F000646576696365730D0A0050444D20646578
:10C50000636F64657220696E6974206572723D257F
:10C510006400496E666572656E63696E6720736557
:10C520007474696E67733A0A0009496E74657276AD
:10C53000616C3A20252E3266206D732E0A00094662
:10C5400072616D652073697A653A2025640A000975
:10C5500053616D706C65206C656E6774683A202558
:10C5600064206D732E0A00094E6F2E206F662063C3
:10C570006C61737365733A2025640A004661696CC7
:10C58000656420746F2073746172742050444D216F
:10C59000004552523A20436F756C64206E6F7420D0
:10C5A000616C6C6F6361746520617564696F206292
:10C5B0007566666572202873697A65202564292C62
:10C5C000207468697320636F756C642062652064F1
:10C5D000756520746F207468652077696E646F7765
:10C5E000206C656E677468206F6620796F757220A5
:10C5F0006D6F64656C0D0A005363616E6E696E67E2
:10C600002E2E2E0A002564206465766963657320EA
:10C61000666F756E640A004D41433A2025303258EA
:10C620003A253032583A253032583A253032583A85
:10C63000253032583A25303258207C205253534905
:10C640003A202564426D0A0041647665727469730C
:10C65000696E67206E616D653A2025730A000000DF
:10C6600000000000000000000000000000000000CA
:10C670008D8A3F02F5913F0200000000000000009B
:10C68000F9913F022D923F029DB63F0245B83F020D
:10C690000100000080FFFFFF01000000000000001B
:10C6A0000100000000000000100000000000000079
:10C6B000000000000000000000000000000000007A
:10C6C000000000000000000000000000000000006A
:10C6D000000000000000000000000000000000005A
:10C6E000000000000000000000000000100000003A
:10C6F000000000000000000000000000000000003A
:10C700000000000000000000000000000000000029
:10C710000000000000000000000000000000000019
:10C720000000000000000000000000000000000009
:10C73000010000000000803B080000000000000035
:10C7400000000000000000000000000000000000E9
:10C7500000000000000000000000000008000000D1
:10C7600000000000000000000000000000000000C9
:10C7700000000000000000000000000000000000B9
:10C780000100000080FFFFFF0100000080FFFFFFAD
:10C790000100000080FFFFFF0100000080FFFFFF9D
:10C7A0000100000080FFFFFF0100000080FFFFFF8D
:10C7B0000100000080FFFFFF0100000080FFFFFF7D
:10C7C0000100000080FFFFFF010000003A000000B0
:10C7D0000100000080FFFFFF010000007523CC393D
:10C7E000010000008284343C10000000DEA6EF3817
:10C7F000CF3A193935111039A03CEA38E085423971
:10C800005EB3D7384B5624399C91D938AAAAAB3895
:10C8100000EBB338887A1A3976AE3439B8AA32398F
:10C82000F6EEA638A099C9389DD70B391000000044
:10C830008524BB3BF54FEF3BA000E13B03EAB63B51
:10C84000DCE6173C7870A83B7054003CEDE5A93B52
:10C85000AF0D863B327F8C3B4B43F13BD4170D3CF5
:10C8600017850B3C795B823BA56D9D3B6767DA3B87
:10C87000010000000100000063000000280000002B
:10C88000010000006300000001000000080000003B
:10C89000010000000100000032000000080000005C
:10C8A0000100000032000000010000001000000044
:10C8B000FFFFFFFF900100000000000000000000EB
:10C8C00009FFFFFFC10200009FFBFFFF3BFFFFFFCF
:10C8D000CAFFFFFF53020000C4FEFFFF2DFCFFFF55
:10C8E000EB0200000000000000000000000000005B
:10C8F000ECE1BFFC0B0DF106F8FF1000F4B9EFD02E
:10C900000DE8F10D0F07EE100505231F1EECECE4FA
:10C91000100EE103070E0C0508011FFE0AF6FDF3D9
:10C92000F819FEFB0C12ED0C0915200302DBFBE8E5
:10C930000D07F90A0E0BF1FE0DFF17150EF605E2B5
:10C94000EF05FA191A02F20A04081621F0EDF0CEEA
:10C95000DC08F00A0A03E80315FF1418EEF4EEC72A
:10C96000F1F4EEEC0602E9FE0A1214FBF8E0EECA5E
:10C97000F805E8EA040CB2060206210200DF06B45C
:10C980000FE7EAF70408DEF8F708220F11F207C2F2
:10C990001AFE01EC0910E411FF061A0F130504C07A
:10C9A0000D0501F4FD16ED0E0309110DFB0303C582
:10C9B000F409F4E7090EEE060B0D12FDFFEA06BEC0
:10C9C00008FEF9140B0DDA111111FE300DF3FCBB4A
:10C9D000140FFB0B0D09F30DFA05F31F08ED00DC36
:10C9E000FD08E605F30CFD0A06080E15F7EEFCF44B
:10C9F0000E1DEC1CF50DEB070608122F05D6FAD319
:10CA0000F515E210030BE7FA0FF91B1FFDF500F017
:10CA1000EE13EA181A07F90406FB0B17FF0BF9EEE1
:10CA2000ECFBE90312020700FB0F1CF8E6F1F4E34C
:10CA3000F1F2E2F30F0FEE02FE1A22FEEEDFF8C370
:10CA4000F0F6DFFE0C11ED000D0D2903F8CCDEB180
:10CA500008F2E9EA0D17F310010428FD12FBF1B109
:10CA60001B0301F0FA18E3140705230910E511BCB4
:10CA7000FCFDF6E202FCE70DFAFA290DF3EBF8D51E
:10CA8000D1FDB015E8EEACFBD1FB1C16F0A5BC0146
:10CA9000D1188118F3E7B0F5BBF50F15F896BC185F
:10CAA000D52AA716D0EFB8F2BCE20513DF82C00E7C
:10CAB000E61D9D15C2F3C6E0D1F20704EFB6D0180B
:10CAC000D91FEA13C9D4DFDADFEEDF0DECB6E419C3
:10CAD000F421ED0CDBC1E0E1EBF6F20A07BEE52440
